:100000000C9462080C947F080C947F080C947F0871
:100010000C947F080C947F080C947F080C947F0844
:100020000C947F080C947F080C94CD120C940C1740
:100030000C94F6220C947F080C947F080C947F0893
:100040000C947F080C947F080C947F080C947F0814
:100050000C947F080C94B4130C947F080C947F08C4
:100060000C947F080C947F080C947F080C947F08F4
:100070000C947F080C947F080C947F080C947F08E4
:100080000C947F080C947F080C947F080C947F08D4
:100090000C947F080C947F080C947F080C947F08C4
:1000A0000C947F080C947F080C947F0800000000DB
:1000B00000F070F0E08000000000C0E070F0F000A0
:1000C000F0F0B090909090B0E0E00000F0F0F080A0
:1000D000808080C0E030100000E0F0909090909020
:1000E0009000000000000000000000000000000080
:1000F0000000000000000000000000000000000000
:1001000000000000000000000000000000000000EF
:1001100000000000000000000000000000000000DF
:1001200000000000000000000000000000000000CF
:10013000000F000001030F0C0E070100000F0F005D
:100140000F0F0D0808080808080F07000F0F0F0011
:1001500000000003070E0C0000070F0C0808080C35
:100160000F07000000000000000000000000000079
:10017000000000000000000000000000000000007F
:10018000000000000000000000000000000000006F
:10019000000000000000000000000000000000005F
:1001A000000000000000000000000000000000004F
:1001B000000000000000000000000000000000003F
:1001C000000000000000000000000000000000002F
:1001D000000000000000000000000000000000001F
:1001E000000000000000000000000000000000000F
:1001F0000000000000000040404040C0E0E0E0E0BF
:10020000E0E0C0C0C8D8B8F07060080C0C0C0C045A
:10021000040404040404040000008040B0F8F880E2
:1002200000000000000000000000000000000000CE
:1002300000000000000000000000000000000000BE
:1002400000000000000000000000000000000000AE
:10025000000000000000000000000000000000009E
:10026000000000000000000000000000000000008E
:1002700000000000000000000000000040300C0101
:1002800087E7F77F3F3F3F1F1F0F07070680C060CC
:1002900070F0F8F8FCFCFCFEFEFFFFFFFFFFFFFF25
:1002A000FCFCF8F0F0E0C08000000000000000005E
:1002B000000000000000000000000000000000003E
:1002C000000000000000000000000000000000002E
:1002D000000000000000000000000000000000001E
:1002E000000000000000000000000000000000000E
:1002F00000000000000000000000001008060301DC
:1003000009030100000C3C3C7CFE3E1F0F0F070F51
:100310000F1F1FFFFFFFFFFFFFFFFFFFFFFFFFFF9D
:10032000FFFFFFFFFFFFFFFF7EF80000000000005F
:1003300000000000000000000000000000000000BD
:1003400000000000000000000000000000000000AD
:10035000000000000000000000000000000000009D
:10036000000000000000000000000000000000008D
:10037000000000000000000000000000C0000000BD
:10038000000000800000000000000000004060E06D
:1003900060703F1F1F0F0F0F04C3FFFFFFFFFFFF22
:1003A000FFFFFFFFFFFFFFFF3E0000000000000017
:1003B000FCFC3C78E0C0000080E0783CFCFC00F0F5
:1003C000F8FC0C040404040CFCF800FCFC0C040411
:1003D00004040CFCF8F000F8FCFC444444444C7861
:1003E000F8C08000F8FC0C040404040CFCF80004C1
:1003F0000C1CB8F0E0F0B8180C0000002067DEB864
:10040000F0E0DCDFC0C0C0C0C060203010080000D9
:100410000000000000004040626371797F7F3F9FD1
:10042000CF633B01130F0301000000000000000038
:100430000707000001030707030100000707000387
:10044000070704040404040607030007070604045E
:100450000404060703010007070704040404040456
:100460000707030003070604040404060703000447
:10047000060301000001030706040000000101015A
:100480000103031B37070F0C1F1B1B131111000067
:10049000000000000000000010000808040603012E
:1004A000000000000000000000000000000000004C
:1004B00000F070F0E08000000000C0E070F0F0009C
:1004C000F0F0B090909090B0E0E00000F0F0F0809C
:1004D000808080C0E030100000E0F090909090901C
:1004E000900000000000000000000000000000007C
:1004F00000000000000000000000000000000000FC
:1005000000000000000000000000000000000000EB
:1005100000000000000000000000000000000000DB
:1005200000000000000000000000000000000000CB
:10053000000F000001030F0C0E070100000F0F0059
:100540000F0F0D0808080808080F07000F0F0F000D
:1005500000000003070E0C0000070F0C0808080C31
:100560000F07000000000000000000000000000075
:10057000000000000000000000000000000000007B
:10058000000000000000000000000000000000006B
:10059000000000000000000000000000000000005B
:1005A000000000000000000000000000000000004B
:1005B000000000000000000000000000000000003B
:1005C000000000000000000000000000000000002B
:1005D000000000000000000000000000000000001B
:1005E000000000000000000000000000000000000B
:1005F0000000000000000040404040C0E0E0E0E0BB
:10060000E0E0C0C0C8D8B8F07060080C0C0C0C0456
:10061000040404040404040000008040B0F8F880DE
:1006200000000000000000000000000000000000CA
:1006300000000000000000000000000000000000BA
:1006400000000000000000000000000000000000AA
:10065000000000000000000000000000000000009A
:10066000000000000000000000000000000000008A
:1006700000000000000000000000000040300C01FD
:1006800087E7F77F3F3F3F1F1F0F07070680C060C8
:1006900070F0F8F8FCFCFCFEFEFFFFFFFFFFFFFF21
:1006A000FCFCF8F0F0E0C08000000000000000005A
:1006B000000000000000000000000000000000003A
:1006C000000000000000000000000000000000002A
:1006D000000000000000000000000000000000001A
:1006E000000000000000000000000000000000000A
:1006F00000000000000000000000001008060301D8
:1007000009030100000C3C3C7CFE3E1F0F0F070F4D
:100710000F1F1FFFFFFFFFFFFFFFFFFFFFFFFFFF99
:10072000FFFFFFFFFFFFFFFF7EF80000000000005B
:1007300000000000000000000000000000000000B9
:1007400000000000000000000000000000000000A9
:100750000000000000000000000000000000000099
:100760000000000000000000000000000000000089
:10077000000000000000000000000000C0000000B9
:10078000000000800000000000000000004060E069
:1007900060703F1F1F0F0F0F04C3FFFFFFFFFFFF1E
:1007A000FFFFFFFFFFFFFFFF3E0000000000000013
:1007B000FCFC3C78E0C0000080E0783CFCFC00F0F1
:1007C000F8FC0C040404040CFCF800FCFC0C04040D
:1007D00004040CFCF8F000F8FCFC444444444C785D
:1007E000F8C08000F8FC0C040404040CFCF80004BD
:1007F0000C1CB8F0E0F0B8180C0000002067DEB860
:10080000F0E0DCDFC0C0C0C0C060203010080000D5
:100810000000000000004040626371797F7F3F9FCD
:10082000CF633B01130F0301000000000000000034
:100830000707000001030707030100000707000383
:10084000070704040404040607030007070604045A
:100850000404060703010007070704040404040452
:100860000707030003070604040404060703000443
:100870000603010000010307060400000001010156
:100880000103031B37070F0C1F1B1B131111000063
:10089000000000000000000010000808040603012A
:1008A0000000000000000000000000000501090237
:1008B000A10185020901A1000509190129081500F6
:1008C000250195087501810205010930093115815D
:1008D000257F95027508810609381581257F9501C8
:1008E00075088106050C0A38021581257F9501756A
:1008F000088106C0C005010980A101850319012AEC
:10090000B700150126B700950175108100C0050CD0
:100910000901A101850419012AA002150126A002DE
:10092000950175108100C005010906A10185060524
:100930000719E029E71500250195087501810205D1
:1009400007190029EF1500250195F07501810205B1
:100950000819012905950575019102950175039105
:1009600001C00660FF0961A1010962150026FF00B0
:100970009520750881020963150026FF00952075F2
:10098000089102C005010906A101050719E029E740
:1009900015002501950875018102950175088101F1
:1009A0000507190029FF150026FF00950675088127
:1009B0000005081901290515002501950575019106
:1009C00002950175039101C00000000000000000C5
:1009D0000000000000000000000000000000000017
:1009E0000000000000000000000000007E0F00D4A6
:1009F000FFFFFFC7000000780000000000000000BB
:100A00002A2B280000000000000000000000000069
:100A100000000029000000002C1E34202122243474
:100A20002627252E362D3738271E1F202122232446
:100A300025263333362E37381F0405060708090AE2
:100A40000B0C0D0E0F101112131415161718191A7E
:100A50001B1C1D2F3130232D350405060708090AFC
:100A60000B0C0D0E0F101112131415161718191A5E
:100A70001B1C1D2F3130354C00DA1281FFD9F1DB00
:100A800020A4A62EAF00A0C0D30000A1C8D30000B0
:100A9000AED580A83F408D14200000AF00AE01000D
:100AA00001000100010001000100015200000000EE
:100AB00001000100010001000100010002520000DC
:100AC00000000100010001000100010001000352CB
:100AD0000000000001000100010001000100010010
:100AE000005200000000A900AA00A900AA00A90065
:100AF000AA002278217809025B00030100A0FA090C
:100B00000400000103010100092111010001224438
:100B10000007058103080001090401000203000029
:100B20000009211101000122220007058203200093
:100B3000010705030320000109040200010300006E
:100B40000009211101000122B600070584032000DD
:100B5000011201000200000008424D364B20010145
:100B60000200010A036D0062006B00360000000EF7
:100B7000036D006F00640062006F007800000004E5
:100B800003090407087F0807003E5B4F5B3E003EF9
:100B90006B4F6B3E001C3E7C3E1C00183C7E3C189C
:100BA000001C577D571C001C5E7F5E1C0000183C1B
:100BB000180000FFE7C3E7FF00001824180000FF3B
:100BC000E7DBE7FF0030483A060E002629792926A0
:100BD00000407F05050700407F05253F005A3CE7A0
:100BE0003C5A007F3E1C1C0800081C1C3E7F001461
:100BF000227F2214005F5F005F5F0006097F017F94
:100C000000006689956A0060606060600094A2FFE1
:100C1000A2940008047E04080010207E2010000822
:100C2000082A1C0800081C2A0808001E10101010B2
:100C3000000C1E0C1E0C0030383E383000060E3EF4
:100C40000E060000000000000000005F0000000031
:100C50000700070000147F147F1400242A7F2A1243
:100C6000002313086462003649562050000008072C
:100C7000030000001C224100000041221C00002A49
:100C80001C7F1C2A0008083E080800008070300005
:100C90000008080808080000006060000020100834
:100CA0000402003E5149453E0000427F4000007270
:100CB00049494946002141494D33001814127F101B
:100CC000002745454539003C4A4949310041211139
:100CD000090700364949493600464949291E00009E
:100CE00000140000000040340000000008142241FD
:100CF00000141414141400004122140800020159B5
:100D00000906003E415D594E007C1211127C007FA5
:100D100049494936003E41414122007F4141413E1F
:100D2000007F49494941007F09090901003E4141CD
:100D30005173007F0808087F0000417F41000020B8
:100D400040413F01007F08142241007F4040404065
:100D5000007F021C027F007F0408107F003E41419B
:100D6000413E007F09090906003E4151215E007F96
:100D7000091929460026494949320003017F010328
:100D8000003F4040403F001F2040201F003F4038B0
:100D9000403F0063140814630003047804030061F7
:100DA00059494D4300007F41414100020408102091
:100DB00000004141417F0004020102040040404024
:100DC0004040000003070800002054547840007F92
:100DD0002844443800384444442800384444287F98
:100DE0000038545454180000087E09020018A4A4C6
:100DF0009C78007F080404780000447D40000020B7
:100E000040403D00007F102844000000417F40002A
:100E1000007C04780478007C08040478003844449A
:100E2000443800FC182424180018242418FC007CE2
:100E3000080404080048545454240004043F442483
:100E4000003C4040207C001C2040201C003C4030E6
:100E5000403C004428102844004C9090907C004472
:100E600064544C4400000836410000000077000044
:100E7000000041360800000201020402003C262363
:100E8000263C00000000000000404040F0F8F8FF61
:100E900038FFF8F83FF8F8FF38FFF8F8F040404026
:100EA00000000000000080C0C0C0800000C0C08002
:100EB00000000080C0C000C0C0000080C0C00000B2
:100EC000000000C0C0C0C0C000C0C00000000000E2
:100ED0000000000000000000000000000000000012
:100EE0000000000000000000000000000000000002
:100EF00000000000000000000000000000000000F2
:100F00000000C0F0F8FC3E1E06010000007F4141D9
:100F1000417F007F4141417F000080C0E07E5B4F08
:100F20005BFEC00000C000DCD7DEDEDED7DC00C028
:100F300000000000000000000000000000000000B1
:100F4000000000000000000000494949FFFFFFFFCA
:100F5000E0DFBFBF00BFBFDFE0FFFFFFFF49494940
:100F600000000000001F3F6060E0BF1F007F7F07A0
:100F70001E381E077F7F007F7F0E1F3B71600000C1
:100F80000000007F7F0C0C0C007E7E007F7E030340
:100F9000007F7E03037E7E03037F7E000F3E703C56
:100FA000063C703E0F00327B49493F7E007F7E0346
:100FB00003001E3F69696F2600000000000000006A
:100FC0000000030F1F3F3C7870600000007F41412C
:100FD000417F007F4141417F00307B7F783020207E
:100FE00030787F3B0003000F7F0F0F0F7F0F000350
:100FF00000000000000000000000000000000000F1
:10100000000000000000000000010101070F0F7F39
:101010000F7F0F0F7E0F0F7F0F7F0F0F0701010153
:1010200000000000000000000000010100000000BE
:1010300000000000000000000000000000000000B0
:1010400000000000000000000000000000000000A0
:101050000000000000000000000000000000000090
:101060000000000000000000000000000000000080
:101070000000000000000000000000000000000070
:101080000000000000000000000000000000000060
:101090000000000000000000000000000000000050
:1010A0000000000000000000000000000000000040
:1010B0000000000000000000000000000000000030
:1010C0000000000011241FBECFEFDAE0DEBFCDBF6D
:1010D00011E0A0E0B1E0E8EDF5E502C005900D9269
:1010E000AE3AB107D9F726E0AEEAB1E001C01D92F1
:1010F000A83FB207E1F70E941D230C94962A0C9496
:101100000000482F2091E9029091B00257E0291386
:1011100002C080E0089530E0529FF001539FF00D2F
:101120001124EF54FD4F8181681306C0808148135C
:1011300003C085818111EECF2F5F3F4F2770E7CF2E
:10114000E8EDF0E080818E7F80831092E2001092C3
:10115000DA001092E100A0EEB0E08C9181608C93F7
:1011600080818F77808319BCA7EDB0E08C918E7F52
:101170008C9380818F7E808310929B0208952091B2
:10118000E4003091E50095E6A9012091EC00822F62
:10119000817020FF06C08091E80080FF06C080E0DB
:1011A00008952091E80022FD1AC08091A6028823AC
:1011B00089F0853089F08091EB0085FD0FC020918A
:1011C000E4003091E50042175307F9F29150E1F63F
:1011D00084E0089582E0089583E0089581E0089511
:1011E0008091A80287FF13C08091E80082FF06C0AB
:1011F0008091E8008B778093E80004C08091A6027C
:101200008111F2CF08958091A6028823D9F38091AD
:10121000E80080FFF8CF8091E8008E77ECCF982F20
:101220009093E900242F762F50E0891731F07091C8
:10123000EC002091ED005091F00021FD07C09F5F70
:10124000973071F78093E90081E008953091EB00C9
:101250003E7F3093EB003091ED003D7F3093ED0009
:101260003091EB0031603093EB007093EC002093F1
:10127000ED005093F0002091EE0027FDE0CF80E0DC
:101280000895B0E0A0E0E7E4F9E00C94DD29C8EDB2
:10129000D0E088818F7E8883E7EDF0E080818160F7
:1012A000808384E082BF81E080939B0288818E7F6F
:1012B000888302EE10E0F80110821092DA0081EECD
:1012C000C82ED12CF601108288818F77888388817F
:1012D0008068888388818F7D888319BC1092A602DC
:1012E0001092A7021092A5021092A40290EEE92E8D
:1012F000F12CF70180818B7F8083888181608883D6
:1013000042E060E080E08BDFF60180818E7F8083A9
:10131000F801808181608083808188608083F7010B
:1013200080818E7F8083888180618883CDB7DEB79E
:10133000E8E00C94F929FC018091AE029091AF0293
:1013400086179707A0F06115710529F49091E800C0
:101350009E779093E80090E06115710551F491112A
:1013600008C08091E80082FF34C080E00895BC018D
:10137000F2CF8091A6028823C1F18530C1F180911E
:10138000E80083FD30C08091E80082FDEACF8091C3
:10139000E80080FFE1CF8091F3002091F200382F28
:1013A0006115710519F02830310558F091E02830A9
:1013B000310509F090E02091E8002E772093E800B5
:1013C000CBCF81918093F100615071092F5F3F4F26
:1013D000E7CF8091A602882341F0853041F08091CB
:1013E000E80083FFBECF81E0089582E0089583E0A6
:1013F000089587E797E7909301088093000888E1B4
:101400009AE00FB6F894A895809360000FBE909371
:101410006000FFCF2FB7F894609197027091980207
:101420008091990290919A022FBF089580911401A2
:101430000895909115019130D1F49091940297FF05
:1014400016C0E82FE695E695E695EE31E0F4F0E07B
:10145000E854FE4F282F277081E090E001C0880FEC
:101460002A95EAF780959281892382830895E2EB99
:10147000F1E09191891303C0DF0111971C9291E073
:10148000E83BF907B1F70895909115019130C1F447
:101490009091940297FF14C0E82FE695E695E695A3
:1014A000EE31F8F4F0E0E854FE4F877021E030E0D0
:1014B00001C0220F8A95EAF78281822B82830895E8
:1014C000A2EBB1E0EFEF90E02D91821751F0EF3FEA
:1014D00019F4211101C0E92F9F5F9630A9F7EF3F62
:1014E00009F408950E2E000CFF0BE055FE4FE6CFD9
:1014F000A3E0B0E0EEE7FAE00C94E3292091920239
:101500003091930228173907B1F09093930280939A
:101510009202E0919002F0919102309761F0008484
:10152000F185E02D309739F024E029839B838A836D
:10153000CE01019609952396E2E00C94FF29A3E0E1
:10154000B0E0E5EAFAE00C94E32920918E023091B4
:101550008F0228173907B1F090938F0280938E0283
:10156000E0919002F0919102309761F00084F18552
:10157000E02D309739F023E029839B838A83CE01C5
:10158000019609952396E2E00C94FF29E0919002E0
:10159000F0919102309739F00190F081E02D309771
:1015A00011F00995089580E008958091830280FDEF
:1015B00016C081FD16C082FD16C08091820288236C
:1015C000A1F0883280F428E0829FC001112468E2F3
:1015D00070E00E94162A862F672B39F0089582E06A
:1015E000089584E0089588E0089581E00895809149
:1015F000830280FD14C081FD14C082FD16C080915D
:101600008102882381F08E3180F420E5829FC00121
:1016100011246EE170E00E94162A862F089584E15D
:10162000089588E2089588E0089580E50895282FB8
:1016300035EB2303C001112497FF04C080589109A2
:10164000892F089580589F4FFBCF25EF611124EF1C
:101650008FB190E02F7002C0959587952A95E2F79B
:101660008170089525EF611124EF30B32F7081E070
:1016700090E001C0880F2A95EAF7982F9095932360
:1016800090BB91B3892B81BB089590917B02E92F88
:10169000F0E040917C029F012F5F3F4F2370332782
:1016A00042171306A9F0E358FD4F282F2F778081AA
:1016B0008078822B60FB87F980839F5F9370909383
:1016C0007B02809179028F5F8093790281E0089597
:1016D00080E0089580E00895F894E82FE295EF7097
:1016E000F0E031A1282F2F7081E090E001C0880F39
:1016F0002A95EAF7982F9095932391A392A1892B8D
:1017000082A3789408959091940292FF10C041E0D2
:10171000282F2471243009F040E031E0282F28716F
:10172000283009F030E0431711F02CE0822793FFB6
:1017300010C041E0282F2471243109F040E031E04D
:10174000282F2871283109F030E0431711F02CE0E0
:1017500082273091950230FF10C051E0282F21716F
:10176000213009F050E041E0282F2871283009F09D
:1017700040E0541711F029E0822731FF10C041E00A
:10178000282F2171213109F040E031E0282F287104
:10179000283109F030E0431711F029E0822794FD49
:1017A000877E089582389105B9F1B0F481339105AF
:1017B00009F47DC048F48932910509F46DC08A327C
:1017C000910509F47BC008958533910509F45FC044
:1017D0008933910509F10895833E9105D9F138F4D3
:1017E000803E910529F1823E910579F10895863E6A
:1017F0009105D9F1873E910509F43EC0843E9105DB
:1018000041F52091950221FF24C08091940284FD2E
:1018100019C087EE90E0089520919402237009F09A
:101820005AC02091950223FF14C089E290E00895E8
:101830002091940220FD38C03091950230FF09C0FC
:1018400024FF43C090E080E008952091940222FD9F
:10185000F7CF08952091940222FD3AC0309195026D
:1018600030FD39C024FFF5CFEDCF2091940223FF46
:10187000F0CF24FDE7CFCDCF2091940223FD2EC0E1
:101880003091950231FFEECF84EE90E008952091E3
:10189000940225FFDECFC9CF2091940225FD21C0FF
:1018A0002091950223FFD5CF89E390E0D2CF2091FC
:1018B000940226FFCECF8AE290E008952091940210
:1018C00026FFC7CF81E390E0089583EE90E008956E
:1018D00082EE90E0089580EE90E0089586EE90E02C
:1018E000089585E390E008951F93CF93DF935ADF27
:1018F000EC01C11580E5D807F0F5C11580E4D807E3
:1019000008F09AC0C03ED10520F5CD3CD10508F0C5
:1019100082C0C83AD10578F4C53AD10508F073C041
:10192000C130D10519F1209709F1C430D105F0F487
:10193000D0E0C0E01BC0C33CD105D0F7C85AD0E00E
:10194000CC0FDD1FCE5BDE4F0990D881C02DD46453
:101950000DC0C11580E2D80708F0CDC0C11581E0E7
:10196000D80708F05AC0C83ED10510F7CE01DF9164
:10197000CF911F910895C03682E5D80718F5C0347D
:1019800082E5D80708F068C0C03282E5D80708F0C1
:101990005CC0C11582E5D80708F493C02C2F2695AA
:1019A000269580E2289F900111248C2F8370C1E03E
:1019B000D0E002C0CC0FDD1F8A95E2F7C22BD32BFB
:1019C000DD68D4CFC03A82E5D80760F4C03882E53C
:1019D000D80708F456C0CF71D0E0DC2FCC27C46FF5
:1019E000D06AC4CFC03C82E5D80708F45FC0C03ECF
:1019F00082E5D80708F09CCFDC2FCC27CC27DF71FD
:101A0000C06FD06AB3CFC55AD0E0C15CDE4FC88189
:101A1000D0E0D064ABCFD065A9CF8D2F74DE182F66
:101A2000CE019927BFDEC12FD0E0DC2FCC27CC27F9
:101A3000DF71C82BD92B9ACFCE019927B3DECC27E3
:101A4000DF70C82BD92BD06A91CFCF71D0E0DC2FBB
:101A5000CC27C16FD06A8ACF2C2F26952695277068
:101A600080E2289F900111248C2F8370C1E0D0E088
:101A700002C0CC0FDD1F8A95E2F7C22BD32BDC68A6
:101A800075CF2C2F26952695277080E2289F9001F0
:101A900011248C2F8370C1E0D0E002C0CC0FDD1F79
:101AA0008A95E2F7C22BD32BDA6860CF8C2F8F7127
:101AB0002ADEC82FD0E0DC2FCC27CC27DF71D06204
:101AC00055CF8C2F8F711FDE55E0D695C7955A954F
:101AD000E1F7CF70D0E0DC2FCC27282F30E084FF57
:101AE00006C044E0220F331F4A95E1F73327C22B8B
:101AF000D32BD0693BCF8D2F8F7105DE182FCE01F0
:101B0000992750DEC12FD0E0DC2FCC27CC27DF7106
:101B1000C82BD92BD4CF8095909115029823909300
:101B200015020895809115029091EC01892B9091F6
:101B3000EB01992391F0892B90911501913071F46B
:101B40009091940297FF0AC09EE12AEB31E040E0B9
:101B5000915040F441111092EB01089596E022EB70
:101B600031E0F5CFF90151919F01552389F34F5F82
:101B7000EFCF8091E9029091B002981301C00895CF
:101B80008F5F8770FACFA82FA77023E0969587956F
:101B90002A95E1F7FC01EE0FFF1FE80FF91FE60F92
:101BA000F71F50E040E080E0219130E00A2E02C0B3
:101BB000369527950A94E2F721703327042E01C049
:101BC000220F0A94EAF7822B4F5F5F4F4330510593
:101BD00059F70895292F933058F4833080F490E01A
:101BE0006DED71E033E0239F800D911D1124CBCF6B
:101BF0002C5F223020F46AED71E090E0F8CF80E0B5
:101C00000895262F277091E001C0990F2A95EAF7D1
:101C100023E0769567952A95E1F7FB01EE0FFF1F0C
:101C2000E60FF71FE40FF51F50E040E0682F70E06B
:101C30008191DF0111979B01042E02C036952795F3
:101C40000A94E2F7217021952827292328272C932D
:101C50004F5F5F4F4330510559F70895282F862F66
:101C6000933068F4233050F4622F70E023E0929FA9
:101C7000600D711D11244DED51E0C3CF08959C5F9F
:101C80009230E0F7622F70E04AED51E0F6CF80939A
:101C9000300208959091300221E030E0F90101C056
:101CA000EE0F8A95EAF7D90102C0AA0FBB1F6A9509
:101CB000E2F7EA2B01C0220F4A95EAF7892F8E231B
:101CC000E81303C0292B822FE2CF20952923FBCFD5
:101CD00021E030E001C0220F8A95EAF7209580913B
:101CE00030028223D4CF9091EA018095892380939A
:101CF000EA01282F277061F4891751F0909195021D
:101D000092FF06C0869586958695E2DF1092EA01DD
:101D1000089521E030E001C0220F8A95EAF7809112
:101D20003002822BB4CF80931E020895CF93DF93AD
:101D3000C091F606D091F7068A30B9F42091ED02F1
:101D4000CE01805F9240622F70E00E94BF29281B65
:101D5000822F66E00E940A2AC82FC15018F4DF9132
:101D6000CF91089580E2E2DFF8CF8D30E9F4C05FD3
:101D7000D2402091ED02622F70E0CE010E94BF2977
:101D8000281B822F9E01280F311D2115344018F089
:101D900080E0D0E0C0E0C80FD11DC051DD4FD0932E
:101DA000F706C093F606DBCF96E0FE01A0EFB6E0A3
:101DB00001900D929A95E1F7803E08F458C086E0B4
:101DC000FE0111928A95E9F7C091F606D091F706C7
:101DD00046E050E0BE0180EF96E00E943F2A9E015F
:101DE000205F3240892B41F1C90146E096958795E5
:101DF0004A95E1F741E050E0BA0102C0660F771F53
:101E00008A95E2F7CB016091EE027091EF02862B8A
:101E1000972BB9016B5F7F4FE6E076956795EA9562
:101E2000E1F702C0440F551F6A95E2F7842B952B0A
:101E30009093EF028093EE022A5F3F4F4091ED02B4
:101E4000642F70E0C9010E94BF29481B463010F47E
:101E5000240F311D211574E0370710F030E020E029
:101E600020513D4F3093F7062093F60678CFF6E0E9
:101E70008F9FB00111246D57744F46E050E0CE01A2
:101E80000E94362AA1CF80911501813061F58091A1
:101E9000940287FF28C046DE8093B90140E250E0FB
:101EA0006DEE71E088EB91E00E943F2A892BD1F022
:101EB00080E2E8EBF1E0ADEEB1E001900D928A95A1
:101EC000E1F7E0919002F0919102309759F004808F
:101ED000F581E02D309731F086E08093B80188EBF2
:101EE00091E0099508951EDE8093B00148E050E02E
:101EF0006DE072E080EB91E00E943F2A892B91F324
:101F000088E0E0EBF1E0ADE0B2E001900D928A955F
:101F1000E1F7E0919002F0919102309719F302807D
:101F2000F381E02D3097F1F280EB91E0DACF882356
:101F300011F0F1DDA8CF0895882331F090911502BA
:101F4000982B909315029FCF08950F931F93CF93D3
:101F5000DF93EC01FC0101900020E9F78F010150B3
:101F60001109C017D10728F0DF91CF911F910F9170
:101F700008958991DBDEF5CF0F931F93CF93DF9305
:101F80008B01EA019091A602943059F58093E90003
:101F90008FEF9091E800815095FD06C095ED9A95E0
:101FA000F1F700008111F5CF8091E80085FF19C09D
:101FB000E6D8811111C08091E80085FD06C08091AE
:101FC000E8008E778093E800F3CFF80181918F01CC
:101FD0008093F100219779F78091E8008E778093C4
:101FE000E800DF91CF911F910F91089543E050E0F9
:101FF000BC0184E0C1CF46E050E0BC0184E0BCCF2E
:1020000040E250E0BC0184E0B7CFCF93DF93EC0116
:1020100048E050E0BC0181E0AFDF88E0FE01ACE9C0
:10202000B2E001900D928A95E1F7DF91CF9108958A
:10203000603229F440E250E0BC0182E09DCF089577
:102040000F931F93CF93DF93142F022F8430F0F45C
:1020500061111CC094E0899FE0011124CF58DF4F2B
:1020600082E090E0442311F090E080E0632F8C0F39
:102070009D1F0E94682A83E090E0112311F081E007
:1020800090E0602F8C0F9D1F0E94682ADF91CF91F6
:102090001F910F9108951F93CF93DF93122F8430D8
:1020A000E0F46330D0F44330C0F4C42FD0E0CC0F60
:1020B000DD1F96E0699FC00DD11D112492E1899F1B
:1020C000C00DD11D1124632FCE0189960E94682A6C
:1020D000612FCE018A960E94682ADF91CF911F91CD
:1020E00008958F929F92AF92BF92CF92DF92FF920C
:1020F0000F931F93CF93DF9306EE1AE08EE9C82E5D
:102100008AE0D82EC0E05601D0E014C0F401259139
:1021100034914F2D6D2F8C2FBEDF82E0880E911CE5
:10212000F39483E0F812F2CF86E0A80EB11CDF5FD3
:10213000D33019F04501F12CE9CFF8012591349104
:1021400041E060E08C2F7CDFF801329625913491DC
:1021500040E060E08C2F74DF0C5F1F4FCF5F82E1A7
:10216000C80ED11CC43009F0CECFDF91CF911F91A2
:102170000F91FF90DF90CF90BF90AF909F908F9086
:102180000895CF93DF9385E290E00E944C2AD82FE8
:1021900086E290E00E944C2AC82F87E290E00E94DD
:1021A0004C2AD53259F4C23149F491E0803109F01A
:1021B00090E0892F8170DF91CF91089580E0FACF70
:1021C0009B012F573F4F6F3773408105910518F4DE
:1021D000C9010C944C2A80E00895CF92DF92EF92CF
:1021E000FF92CF93DF93EC01C880D980EA80FB8017
:1021F000C701B601E5DF9FEFC91AD90AE90AF90A52
:10220000C882D982EA82FB82DF91CF91FF90EF9062
:10221000DF90CF900895FF920F931F93CF93DF939A
:10222000F42E843040F5611126C024E0829F8001A5
:1022300011240F581F4F82E090E0442311F090E0EA
:1022400080E0800F911F0E944C2AC82FD0E0DC2F25
:10225000CC2783E090E0FF2011F081E090E0800F38
:10226000911F0E944C2A9E01282BC901CDB7DEB7D1
:10227000E5E00C94FC2990E080E0F8CF0F931F93E9
:10228000CF93DF93843030F5633020F5433010F581
:10229000C42FD0E0CC0FDD1F26E0629FC00DD11D02
:1022A000112432E1839FC00DD11D1124CE018996E6
:1022B0000E944C2A082F10E0102F0027CE018A968A
:1022C0000E944C2A9801282BC901DF91CF911F91C0
:1022D0000F91089590E080E0F8CF462F672F73307C
:1022E00028F4433050F4843040F4C8CF7D3F41F4AB
:1022F000411103C041E0843048F090E080E008954F
:102300007C3FD9F74111F9CF8430B8F760E083CF33
:10231000CF92DF92FF920F931F93CF93DF936C01C5
:102320000091300280911E02082BC3E0D0E010E043
:10233000FC2EC8010C2E02C0959587950A94E2F7F1
:1023400080FD0CC02197A0F7F12C8F2DDF91CF914C
:102350001F910F91FF90DF90CF900895B6018C2FC1
:10236000BCDFC2DA019771F3F0CFCF93DF93EC01BA
:10237000CFDFBE01B2DFB8DADF91CF910895FC0163
:1023800024812223B9F080819181EFDF92959F70A3
:10239000963091F058F4925F9F70923058F4803FDD
:1023A00019F030F4883E30F481E008959A5FF4CF5C
:1023B000843FD1F380E00895883EB0F3813FD1F7A8
:1023C000F3CFA6E0B0E0E7EEF1E10C94E22926E0DD
:1023D000FC01DE01119601900D922A95E1F7FC01B6
:1023E000258189819A81222381F0662371F090DF13
:1023F000182F682F89819A8131DC69817A81812F38
:102400006CDF2696E3E00C94FE29E4DB182FF5CF71
:10241000A0E1B0E0EEE0F2E10C94D529CE01019606
:102420005C0180E1F50111928A95E9F709E310E07A
:102430009FE7492E93E0592E612C712C21E8822EC2
:10244000912C0150110921F46096E0E10C94F129DE
:102450006201F1E14F165104610471042CF080E136
:10246000C82ED12CE12CF12CA601B401C5010E948B
:10247000592A8C0C9D1C0D2C000CEE08FF084C18E2
:102480005D086E087F08DDCF6FEF85E290E00E9467
:10249000682A6FEF86E290E00E94682A6FEF87E279
:1024A00090E00E94682A60E088E290E00E94682A3A
:1024B00018DEAEDF65E285E290E00E94682A62E104
:1024C00086E290E00E94682A60E187E290E00C9446
:1024D000682AAB0124E630E0BC0188E70E943A2973
:1024E00021E0892B09F020E0822F08958091770266
:1024F00090917802911103C091E089270895882373
:1025000061F062E070E08CE99AE0E3DF811103C0E2
:102510008091770208951092770280917702ECCF34
:10252000CF93C0917702809178028823C9F00E94EE
:102530000A0A605A75418F4F9F4F609373027093E0
:1025400074028093750290937602C11107C062E015
:1025500070E08AE99AE0BDDF811105C0C091770281
:102560008C2FCF91089581E080937702F7CF9091DF
:10257000950292FB222720F9281771F080FB92F92F
:1025800090939502609194027091950284E090E09E
:102590000E94822A82E0A7CB08951F920F920FB665
:1025A0000F9211242F933F934F935F936F937F93D9
:1025B0008F939F93AF93BF93EF93FF938091E1002D
:1025C00082FF09C08091E20082FF05C08091E10096
:1025D0008B7F8093E1008091DA0080FF24C080919E
:1025E000D80080FF20C08091DA008E7F8093DA00CF
:1025F0008091D90080FFAAC080E189BD82E189BDB8
:1026000009B400FEFDCF81E08093A60280919B0279
:10261000811109C00E94A0080E9441098091E20036
:1026200084608093E2008091E10080FF1AC0809175
:10263000E20080FF16C08091E2008E7F8093E2006E
:102640008091E20080618093E2008091D8008062F6
:102650008093D80019BC85E08093A60283E0809324
:1026600016018091E10084FF30C08091E20084FF78
:102670002CC080E189BD82E189BD99B5892F817027
:1026800090FFFBCF9091D8009F7D9093D8009091C0
:10269000E1009F7E9093E1009091E2009F7E9093F5
:1026A000E2009091E20091609093E2009091A70285
:1026B000992309F451C094E09093A6029091A60248
:1026C000943009F482E0809316018091E10083FF49
:1026D0002CC08091E20083FF28C08091E100877FB9
:1026E0008093E10082E08093A6021092A70280917D
:1026F000E1008E7F8093E1008091E2008E7F8093E5
:10270000E2008091E20080618093E20042E060E0BC
:1027100080E00E940F098091F00088608093F000B3
:1027200081E08093160180931501FF91EF91BF9195
:10273000AF919F918F917F916F915F914F913F9159
:102740002F910F900FBE0F901F90189519BC1092EB
:10275000A60210929B0267CF9091E30097FD02C002
:10276000982FAACF93E0A8CF78941F921FB61F92FC
:1027700011248F939F93AF93BF9380919702909171
:102780009802A0919902B0919A020196A11DB11DE3
:102790008093970290939802A0939902B0939A0223
:1027A000BF91AF919F918F911F901FBE1F90189561
:1027B0002FB7F8948091970290919802A091990276
:1027C000B0919A022FBF0895CF93DF93EC01F0DF11
:1027D0008C1B9D0BDF91CF910895EADF9C019091B6
:1027E0008A0280918B02982B21F0309387022093EC
:1027F000860290918C0280918D02982B21F030936B
:10280000850220938402E0919002F091910230972A
:1028100059F00680F781E02D309731F082E0809307
:10282000880288E892E00995089510921502809137
:102830001501813021F58091940287FF20C0EAEBD9
:10284000F1E08EE1DF011D928A95E9F790E080E0EA
:102850000E949F0A90E080E00E94780A1092EC01AA
:1028600012DB86E0E8E8F2E0DF011D928A95E9F7E5
:10287000109281021092820210928302AECFE2EB9C
:10288000F1E086E0DFCFAAE2B0E0E9E4F4E10C9405
:10289000E22988EA92E02091F100DC012D93CD013C
:1028A000B2E0803B9B07B9F78091A902833009F41D
:1028B00072C0B8F4813009F449C0823009F4B6C05E
:1028C0008091E80083FF3EC18091A8029091A90207
:1028D0009A3008F037C1E92FF0E0E856F54D0C9436
:1028E000292A8A3009F491C08B3009F471C08930EB
:1028F00039F78091A802813219F78091AC0290914A
:10290000AD02009711F00297D9F68091E800877F19
:102910008093E8008091E80082FF38C09091F30036
:102920008091F200029731F48091F100813011F032
:10293000863021F48091F100809314018091E800A9
:102940008B778093E8000E94F008BACF8091A802AC
:10295000813A09F0B5CF8091E800877F8093E80045
:102960008091AC029091AD02892B61F468E08CE912
:1029700092E070E00E949B098091E8008B77809341
:10298000E8009ECF60E090E080E0F3CF8091A60267
:102990008111C0CF95CF8091A802813A09F090CFE4
:1029A0008091AC029091AD02892B09F089CF809182
:1029B000E800877F8093E8008091E80080FFFCCFEB
:1029C000809115018093F1008091E8008E77B9CF56
:1029D0008091A802813209F073CF8091AC0290916E
:1029E000AD02892B09F06CCF8091E800877F80933E
:1029F000E8000E94F00881E09091AA02911101C0C4
:102A000080E08093150111DF5BCF8091A8028132B5
:102A100009F056CF8091E800877F8093E8000E94FC
:102A2000F0088091AB02809313014ACF8091A802F5
:102A3000813A09F045CF8091E800877F8093E800D4
:102A40008091E80080FFFCCF80911301BBCF8038DC
:102A500099F0823809F076C08091AC028F7087308F
:102A600008F070C08093E9008091EB0085FB882717
:102A700080F91092E90006C08091A4029091A5020D
:102A8000911182609091E800977F9093E800809385
:102A9000F1001092F1008091E8008E77B8C1882390
:102AA00009F4A5C1823009F04DC08091AA028111BC
:102AB000A9C18091AC028F702FEF280F263008F04B
:102AC00041C08093E9002091EB0020FF9BC193302F
:102AD00031F48091EB0080628093EB0093C1909180
:102AE000EB0090619093EB0021E030E001C0220FF9
:102AF0008A95EAF72093EA001092EA008091EB00B1
:102B00008860EACF81111EC01091AA021F778091C0
:102B1000E3008078812B8093E3008091E800877F39
:102B20008093E8000E94F0088091E80080FFFCCFCD
:102B30008091E30080688093E30082E0111183E0DC
:102B40008093A6028091E80083FF0AC08091E8008C
:102B5000877F8093E8008091EB0080628093EB0098
:102B6000AA96E3E00C94FE298058823058F7209111
:102B7000AA023091AB022C3DE3E03E07A1F583E0D1
:102B80008A838AE289834FB7F894DE01139620E0A6
:102B90003EE051E2E32FF0E050935700E49120FF34
:102BA00003C0E295EF703F5FEF708E2F90E0EA3048
:102BB000C0F0C7968D939D932F5F243159F74FBF77
:102BC0008091E800877F8093E8006AE270E0CE01A0
:102BD00001960E949B098091E8008B778093E80022
:102BE000B1CFC096E7CF8091AC029091AD02432F58
:102BF00055274330510509F44AC078F54130510555
:102C000009F47AC08BE590E0E6EFFAE04230510536
:102C100009F098CF2091E800277F2093E8002091C9
:102C2000AE023091AF028217930708F49C0140E096
:102C30002115310509F065C0411163C08091E8009C
:102C400082FDC9CF8091A602882329F2853019F22E
:102C50008091E80083FFF2CFBECF4132510509F4E5
:102C60003CC04232510509F06DCF8330910508F028
:102C700069CFFC01EE0FFF1FEF55FE4F0190F08171
:102C8000E02D82569E4FDC018C9190E01AC03327D4
:102C900021303105D1F02115310561F022303105A7
:102CA00009F050CFE3E6FBE0E4918E2F90E0E3E6FD
:102CB000FBE007C0EFE7FBE0E4918E2F90E0EFE749
:102CC000FBE0009709F43ECFA5CFEFE6FBE0E491EF
:102CD0008E2F90E0EFE6FBE0F4CF8330910508F013
:102CE00031CF880F991FFC01E955FE4F0190F0810B
:102CF000E02D89E090E08ECF82E190E0E1E5FBE01D
:102D000089CF8091A602882309F465CF853009F424
:102D100062CF8091E80083FD5ECF8091E80082FD64
:102D20008DCF8091E80080FF83CF9091F300809158
:102D3000F2002115310519F08830910550F041E07D
:102D4000089709F040E08091E8008E778093E800D2
:102D50006FCF44914093F100319621503109019693
:102D6000E8CF803809F0EECE8091E800877F80932D
:102D7000E8008091A7028093F1008DCE8111E2CE10
:102D80001091AA02123008F0DDCE8091E800877F12
:102D90008093E8001093A7020E94F008112311F01D
:102DA00084E005C08091E30087FDFACF81E0809345
:102DB000A60242E061EC81E00E940F0942E261EC70
:102DC00084E00E940F0942E261EC82E00E940F0958
:102DD00042E260EC83E00E940F098091A6028430F9
:102DE00021F081E080931601ADCE82E0FBCF80918F
:102DF000AA02813009F0A6CE81E0933009F080E08C
:102E00008093A5021092E9008091E800877F80936B
:102E1000E8000E94F00896CE1F920F920FB60F9214
:102E200011242F933F934F935F936F937F938F93CF
:102E30009F93AF93BF93CF93DF93EF93FF93D09183
:102E4000E900DF708091EC00C82FC17080FDC0E800
:102E50001092E9008091F000877F8093F0007894D1
:102E600012DD1092E9008091F00088608093F000FC
:102E7000CD2BCF70C093E900FF91EF91DF91CF91FF
:102E8000BF91AF919F918F917F916F915F914F9182
:102E90003F912F910F900FBE0F901F901895C5DC9A
:102EA0002FEF84E39CE0215080409040E1F700C088
:102EB000000088E19AE00FB6F894A895809360002E
:102EC0000FBE90936000FFCF662309F45BC08D3C7A
:102ED00031F40E94F70A819580938B027ECC8E3C60
:102EE00019F40E94F70AF8CF8F3C31F40E94F70AD8
:102EF000819580938A02F2CF803D19F40E94F70AEF
:102F0000F8CF893D29F40E94D50A80938C02E6CF40
:102F10008A3D21F40E94D50A8195F7CF8B3D31F48B
:102F20000E94D50A819580938D02D8CF8C3D19F4EB
:102F30000E94D50AF8CF9FE2980F983070F4815D17
:102F4000990B21E030E001C0220F8A95EAF78091C9
:102F50008902822B80938902C1CF8D3D31F480910B
:102F60008302816080938302B9CF8E3D21F48091EA
:102F700083028260F7CF8F3D09F0B0CF809183024A
:102F80008460F0CF40918A028D3C59F480918B028D
:102F900087FF0DC010928B0241110BC0109281026D
:102FA00008C08E3C81F480918B0218169CF3442358
:102FB00081F080918C0290918D02892B09F08ECF47
:102FC000109282028BCF8F3C49F447FFF0CF1092D2
:102FD0008A0280918B028111ECCFE0CF803D19F401
:102FE0001416ACF3E4CF90918C02893D29F41916A4
:102FF000F4F610928C02DBCF8A3D19F497FFD7CFFD
:10300000F8CF90918D028B3D29F497FFD0CF10928D
:103010008D02CDCF8C3D19F41916CCF3C8CF9FE2A9
:10302000980F983090F4815D990B21E030E0B90160
:1030300002C0660F771F8A95E2F7CB0180959091C9
:103040008902892380938902B2CF8D3D31F480912A
:1030500083028E7F80938302AACF8E3D21F48091DC
:1030600083028D7FF7CF8F3D09F0A1CF809183023E
:103070008B7FF0CF882361F19CEF980F913A20F479
:103080000E94190A0C94430F90E2980F983050F464
:10309000877091E001C0990F8A95EAF7892F0E9405
:1030A0008B0DF0CF9BE5980F933020F490E080E0FB
:1030B0000C949F0A98E5980F9B3120F490E080E0F3
:1030C0000C94780A93E3980F933110F460E0FCCEEF
:1030D0000895CF93C82F8823B1F18CEF8C0F813ADC
:1030E000A0F580911501813001F58091940287FF50
:1030F0001CC0EC2FE695E695E695F0E0E854FE4F0F
:10310000828190E04C2F477021E030E002C0220F16
:10311000331F4A95E2F782239323892B79F08C2F72
:103120000E94190A0E94430F09C0E2EBF1E081916D
:10313000C817A9F381E0E83BF807C9F78C2F0E9474
:10314000440A0E94430FCF91089580E28C0F88308B
:1031500068F4C77021E030E001C0220FCA95EAF799
:1031600080911502822B80931502EBCFEBE5EC0FDB
:10317000E33040F4F0E0E15CFE4F808190E00E949B
:103180009F0AE1CFE8E5EC0FEB3150F4F0E0EE0FF1
:10319000FF1FEE5BFE4F808191810E94780AD3CFA2
:1031A00083E38C0F833178F661E08C2F8DDECBCFFB
:1031B0001F93CF93DF93182FEB018BDF209731F410
:1031C000812F58DFDF91CF911F9108958FE99FE004
:1031D0000197F1F700C000002197F0CFEF92FF9226
:1031E0000F931F93CF93DF93C62FD42F022FFC0191
:1031F00085818823A1F06093EC02DADA9093EB02E8
:103200008093EA02C77081E001C0880FCA95EAF78F
:103210000E949C0FCDB7DEB7E6E00C94FB298091AD
:10322000EC02681334C0E090EA02F090EB02C0DADE
:103230008E199F09883C910550F510E21D0FCD179E
:10324000B9F080E28C0F883040F4C77081E001C093
:10325000880FCA95EAF70E94970F183048F481E06A
:103260009D2F977001C0880F9A95EAF70E949C0FD6
:1032700070E060E0802F9CDF183060F6D77081E04E
:1032800001C0880FDA95EAF70E94970FC3CFC77085
:1032900081E001C0880FCA95EAF7F6CFA4E0B0E05C
:1032A000E4E5F9E10C94D9297C01FC0184818823AF
:1032B00009F488C061E0C70184D88C01F7018581D9
:1032C000882309F4ECC0980137572038310508F0FD
:1032D00098C4003108F067C06EE773E080E090E0CA
:1032E0000E94E01081115FC0812C912C54010111CA
:1032F00022C089829A82AB82BC824AE0842ECE01AF
:1033000001960E94ED10882309F44DC0813009F028
:1033100073C0CE0101960E94ED10813001F5CE01FF
:1033200001960E94ED1070E060E0893311F460E5D1
:1033300070E03EDFE4CFFFE78F16F3E09F06A104C5
:10334000B10489F1C501B4010E94E010811101C0EE
:1033500001502FEF821A920AA20AB20AC8CF823015
:1033600031F4CE0101960E94ED10B3DEC8CF833058
:1033700031F4CE0101960E94ED107CDEC0CF843086
:1033800081F4CE0101960E94ED1010E000E0482F7C
:103390004053550B9A014A305105C0F001151105F3
:1033A00011F58111ACCF8091EA01877059F0F701D6
:1033B0008581882339F08091950282FF03C082E0E5
:1033C0000E94730E2496ECE00C94F529809EC001B7
:1033D000819E900D11248901080F191FCE010196BD
:1033E0000E94ED10D4CFEFE9FFE03197F1F700C074
:1033F000000001501109D2CFE82FF0E0E850F64F5D
:103400009490282F26952695269530E0F901E851CD
:10341000F64FC4908770D12C082E02C0D594C79463
:103420000A94E2F7F1E0CF22DD24F901E852F64FE9
:10343000A490B12C082E02C0B594A7940A94E2F788
:1034400041E0A422BB24F901E853F64F049110E0B7
:1034500002C0159507958A95E2F701701127C114EE
:10346000D10411F081EE35DEA114B10411F086EE25
:1034700030DE70E060E0892D9BDEA114B10411F014
:1034800086EEF8DDC114D10411F081EEF3DD0115F3
:10349000110509F434CF70E060E08CE24ACFF80106
:1034A000E851FC47E730F10508F09FC3EE55F54DB4
:1034B0000C94292A26E241EE61EEC7018FDE73CF1C
:1034C00027E245EE65EEF9CF26E241EE60EEF5CF5C
:1034D00027E245EE64EEF1CF26E241EE62EEEDCF5B
:1034E00027E245EE66EEE9CF28E241E0EBCF80919E
:1034F000940281608093940292C0809195028860CA
:10350000809395028CC0809194028260F3CF809169
:1035100094028460EFCF809194028860EBCF809119
:1035200095028160EDCF809195028260E9CF809114
:1035300094028061DFCF809194028062DBCF809122
:1035400094028064D7CF71D9809194028068D2CFE1
:10355000809194028C60CECF809195028360D0CF11
:10356000809194028E7FC6CF80919502877FC8CFCD
:10357000809194028D7FBECF809194028B7FBACFD1
:1035800080919402877FB6CF809195028E7FB8CFCD
:10359000809195028D7FB4CF809194028F7EAACFC7
:1035A000809194028F7DA6CF809194028F7BA2CFD1
:1035B0003CD9809194028F779DCF80919402837F34
:1035C00099CF809195028C7F9BCF8091940282FB52
:1035D000992790F921E0922790FB82F990FB83F9DB
:1035E00089CF80919502982F909591708E7F892B2D
:1035F00090FB81F985CF90919402892F8F7B96FF64
:10360000806478CF12D990919402892F97FB87F923
:10361000805870CF61E08EE090E00E94682A60914F
:1036200094027091950284E090E00E94822AFDD875
:10363000BACE60E0F0CF90919402892F8F7E94FFF4
:10364000806158CF90919402892F8E7F90FF816086
:1036500051CF90919502892F877F93FF886050CF3B
:1036600085E3BEC285E3CAC207375CE71507F9F0F8
:1036700008379CE7190741F19801205E3245203256
:10368000310520F5811134C00F7181E090E0FC011B
:1036900002C0EE0FFF1F0A95E2F78F016E2F83E045
:1036A00090E00E94682A802F0E94930E7CCE81E0D9
:1036B0000E94890E43E062E081E00E944A0E73CED0
:1036C00081E00E94680EF6CF82E0F2CF882381F07D
:1036D0000330FCE71F0709F476C008F05AC0011553
:1036E0003CE7130709F463C001301C4709F471C0BB
:1036F000F701858100811181882309F477C0C80111
:103700000E948811D82E682FC8010E942E0EB80181
:103710008D2D0E946D110E94740C8C01882EF70172
:10372000A580968092943FE093228091EA01877071
:1037300009F1DA2CAA20F9F0812F807F803469F01A
:1037400080E2800F8830B0F0812F807E803229F4B3
:10375000F1E0F01778F4992069F08091950282FFEA
:1037600009C082E00E94730E8091EA018770DD2417
:10377000D3948111D12CC12EC2942FE0C2222BE010
:103780002C1508F495C0EC2DF0E0E755F54D0C94A0
:10379000292A0B355CE7150739F10C358CE718073A
:1037A000C9F00A351C4709F0A3CF81E01AC03DD803
:1037B000EFEFF4E32CE0E150F0402040E1F700C0EF
:1037C00000000E94F9096FEF7FEF90E080E00E9417
:1037D000822A65DB8091950282FB882780F991E03F
:1037E00089270E94B71284CF80E0FBCFC8010E94D6
:1037F000EA0DD82E8CCF312F3F70B32E107F19F0E9
:10380000B29490EFB922AA20B9F0BB2069F080E20F
:10381000800F883010F0811009C080911502B82AFD
:10382000B09215020E94430F802F41C08091EC019D
:10383000B82AB092EC01F6CF802F1CDCBB20C1F17E
:10384000005E083010F0811004C08B2D0E948B0D9B
:1038500006C0B0948091EC01B822B092EC010E94B5
:10386000430F26C0412F4F70B42E107F103219F035
:10387000B29480EFB822882051F051E0851609F407
:1038800059C0AA2009F465C0992049F1CDCF809193
:10389000950282FD20C0AA20C9F0BB2039F080919A
:1038A00015028B29809315020E94430F80E011DCE2
:1038B0002C2D2850330B2430310508F069C10E94AB
:1038C000C60A60E0C7010E94E1117CCD80E0D2DB36
:1038D000BB2071F3BACFAA2099F0911004C08B2DB0
:1038E0000E949C0FE5CF81E09812E2CF8091EB011E
:1038F0009B2D9823B916E1F28B298093EB01D8CF49
:103900009110D6CF8B2D0E94970F9091EB018B2DAC
:10391000892329F08B2D809589238093EB01909149
:10392000D9018B2D892321F28B2D809589238093BA
:10393000D901BECFAA2029F095E0991508F4B8CF97
:10394000CECFE4E0E91508F4B3CF8B2D0E94970F9A
:10395000AFCF9920D1F3F9E38F1209C02FEF37EEE3
:1039600043E0215030404040E1F700C00000802F8C
:1039700081DB9ECF812F86958695837061F08130A3
:1039800009F096CFC8019370A11002C080E090E0CA
:103990000E94780A8DCFC8019370A11002C080E008
:1039A00090E00E949F0A84CF6A2D802F8DDA80CF0D
:1039B000812F837089F5A1107BCF402F42954695CA
:1039C0004770440F440F802F8F70042E01C0880F62
:1039D0000A94EAF7202F207104FF07C02FE030E09F
:1039E00001C0220F4A95EAF7209516951695137097
:1039F000123069F050F430911E02113029F0822B00
:103A000083230E94930E54CF832B822BFACF282B33
:103A100080911E028227F5CF8695AA2011F0812F72
:103A20008170882309F444CF402F42954695477012
:103A3000440F440F802F8F70042E01C0880F0A940A
:103A4000EAF7202F207104FF07C02FE030E001C00B
:103A5000220F4A95EAF720951695169513701230A5
:103A600069F050F430913002113029F0822B832319
:103A70000E94470E1DCF832B822BFACF282B8091DB
:103A800030028227F5CF1F70AA2029F0812F0E94D3
:103A9000890E802F25CF802F0E94970F812F0E94A3
:103AA000680E06CF802F52EF8516B1F1581570F0D1
:103AB00090EF8916D1F0E1EF8E1691F0AA2009F46B
:103AC00057C09110B1CE812F8F712AC0F3EF8F169E
:103AD00051F124EF8212F2CF9091950292FD2FC006
:103AE000812F8F71AA20D9F21BC0AA2081F034E067
:103AF000391508F4DDCE1F7181E090E0012E01C080
:103B0000880F0A94EAF7909130028927B1CF45E0F7
:103B1000491508F4CDCEEFCF812F8F71A110BFCF03
:103B20000E94890EC5CE80E0AA2009F4A1CF1F71A2
:103B300081E0012E01C0880F0A94EAF799CFAA20EC
:103B400061F0812F8F7192FFEBCF58E0859F90013C
:103B5000112423602093EA01E3CF81E00E94730ED9
:103B600081E0891508F0A4CE82E00E94730EA0CEF9
:103B7000992059F0893309F0FACE9FEFE7EEF3E090
:103B80009150E040F040E1F7F0CE812F8F7187CF68
:103B9000DD2009F496CE8091EA0180FD92CEF701F6
:103BA00015828695869586950E94890EC70176DBDB
:103BB0008091EA018695869586950E94680E81CE51
:103BC0000631FCE71F0709F04FCD809115028A7A74
:103BD00091E009F490E09093D801811141CD89E200
:103BE0000E94440A0E94430FDECB06312CE71207E5
:103BF00049F58091D801811135CD89E20E94190AD9
:103C0000F1CFF801E851FC47E730F10508F44ECC5C
:103C10001092EC02980130572332310588F684E087
:103C200090E00E94542A9093950280939402F801A8
:103C3000E150F047E232F10508F059CCEB54F54D74
:103C40000C94292A07373CE7130709F439CD0837C4
:103C50004CE7140709F010CD82E033CDCF93DF930A
:103C60008091E901807F09F04CC08091E8018823B0
:103C700009F447C0E091E9025091B002C091E4011B
:103C8000D091E3016091E5017091E60147E05E1794
:103C9000C1F18E2F90E0E49FF0011124EF54FD4F0D
:103CA0002481222389F1489FF001499FF00D1124BE
:103CB000DF01AF54BD4F11962C9111972C1324C0E6
:103CC0002C912D1321C015962C91159721111CC0F4
:103CD00012962D913C91261B370B283C3105A0F400
:103CE0008091E9018F7080618093E901E954FD4F73
:103CF00080818F708061808383EE91E0CFDA0E94B3
:103D0000B90DDF91CF910895FC013196E770BFCFD7
:103D1000A4E1B0E0EEE8FEE10C94D9298C0186E044
:103D2000F801DE011F9601900D928A95E1F7F801E6
:103D30008481E58093EEA92E91E0B92E9091E70160
:103D4000911126C0882309F1EE20E9F0C8010E94F4
:103D5000BF11F82E8823B9F087E0F801D501019052
:103D60000D928A95E1F78091E701813031F48091DD
:103D7000E3019091E4010E94B51170DF8F2D6496EC
:103D8000ECE00C94F529C80189DAFF24F394F6CF0E
:103D9000D080C18082809380F090E8012091E5017D
:103DA0003091E601A401421B530BFF2009F4D3C05C
:103DB000483C510508F08EC0882301F39091E4013E
:103DC0008091E901282F207F09F054C0C91213C047
:103DD0009091E301D9120FC0E11046C08F7080614D
:103DE0008093E90183EE91E059DA8091E901F801CD
:103DF0008683F12CC3CFE11037C06C2D8D2D0E942E
:103E000081086C2D8D2D0E948108E82E8111F1CF43
:103E1000DF86C88A8F8598890E94B511292F22953F
:103E20002F70243058F49F70223080F0992391F045
:103E3000F8019681907F71F4FE2CA0CF2A5F2F703D
:103E4000223060F0C8012ADAEF2CF6CF992311F066
:103E5000882391F3805E883078F3F4CF803F60F35D
:103E6000815F833078F7E8CF8091E90181608093AA
:103E7000E901BFCFC91207C09091E301D91203C075
:103E8000EE2009F489C0C8010E94BF11882309F4FB
:103E90007ACFEE2009F477CF8091E901803280F06B
:103EA0002091E3013091E401398728879B868A8637
:103EB0009091E7019C871D868E87CE010896EED9EA
:103EC00087E0F801A3EEB1E001900D928A95E1F749
:103ED000C5DE5BCF9091E901292F207F49F483EE65
:103EE00091E0DCD987E0F50111928A95E9F781CF5D
:103EF000882309F443CF8091E4018C110FC0809195
:103F0000E301D8120BC0E11009C09683C801C6D9DD
:103F100087E0F50111928A95E9F730CFC8010E9438
:103F2000BF11882309F42FCFEE2009F42CCF809104
:103F3000E901803228F22091E3013091E4013A83D3
:103F400029839C828B829091E7019D831E828F83BF
:103F5000CE010196B4CF483C5105D0F6882309F430
:103F600014CFFE2CEE2009F40ECF8091E4018C11C9
:103F70001FC08091E301D8121BC08091E90180FD30
:103F80000EC0982F907F59F08683903F31F0982F84
:103F9000907F905F8F70892B8683C8017FD987E0DF
:103FA000F801A3EEB1E001900D928A95E1F7E6CE1B
:103FB000C8010E94BF11811183CF8091E901816006
:103FC0008093E901C8016AD9D9CEABE1B0E0EBEE4C
:103FD000FFE10C94E2294E8B5F8B688F798F8A8F7B
:103FE0009B8F91111092EC011D8A86E0FE0176965E
:103FF000DE011F9601900D928A95E1F78B89882347
:1040000051F061E0CE010F960E94E11161E0CE0116
:104010000F960E94E11187E0FE013F96DE0118969F
:1040200001900D928A95E1F7CE01089671DE81111B
:104030000CC087E0FE013896DE01119601900D92CA
:104040008A95E1F78C8581110BC017E08091E90218
:104050009091B002891331C06B96E3E00C94FE2975
:104060002091B00230E0C9010196877099274091F4
:10407000E9024817190699F097E0929FD001939FA3
:10408000B00D1124AF54BD4FFE01319601900D9239
:104090009A95E1F78093B0020E94B90DD6CF0E94A5
:1040A00015141092B0021092E90287E0E3EEF1E0FD
:1040B000DF011D928A95E9F7C8CF819FC0011124C5
:1040C0008F549D4F25DE882339F28091E90290E0DC
:1040D0000196877099278093E902B8CFAAE0B0E0F3
:1040E000E4E7F0E20C94D42980917802882309F463
:1040F0009CC01091ED0280EF92E09093F7068093C0
:10410000F6068091170190911801A0911901B091C4
:104110001A018D839E83AF83B88780911B01909194
:104120001C01A0911D01B0911E0189839A83AB836C
:10413000BC83E0902C02F0902D020E94D8138E19BF
:104140009F09823A9105C0F10E94D813B0E0A0E027
:1041500080932C0290932D02A0932E02B0932F02F5
:1041600080912B028F5F817080932B0290E0880FEB
:10417000991FE1E0F0E0EC0FFD1FE80FF91F6481EB
:10418000758140815181413024E0520710F040E0B8
:1041900054E02091EE023091EF02A0EFB2E090E007
:1041A00080E0EE24E394F12C8417950709F041C0D8
:1041B0003093EF022093EE02812F90E0880F991F39
:1041C0008A509D4F9093F7068093F60680913002B7
:1041D000882309F45DC090E09C013595279520FF68
:1041E00043C08FE191E00E94A50F8091EE02909173
:1041F000EF02892B09F04FC0809177028823A9F044
:104200000E940A0A009173021091740220917502B3
:1042100030917602601B710B820B930B6F3F7F4FC7
:104220008F4F9F4710F40E9476122A96E1E10C947A
:10423000F029FB01E80FF91FE491FC91EF1789F0D9
:10424000EC93FC01689415F8F695E7951694E1F760
:10425000670102C0CC0CDD1CEA95E2F7F6012C29BF
:104260003F2B01961196A0CF9C013595279535954A
:10427000279520FF03C087E291E0B5CF53E09595E5
:1042800087955A95E1F780FF03C08FE291E0ABCFAD
:1042900087E391E0A8CF80917802882309F4ACCF1E
:1042A000809172028111A8CF0E9490122091EE029B
:1042B0003091EF022115310509F49ECF80E041E0F5
:1042C00050E0082F10E07A01082E02C0EE0CFF1C0F
:1042D0000A94E2F7B70162237323672B11F48F5F0F
:1042E000F0CF9091710290FF9AC0880F880F880FCD
:1042F00080930E0110921101895F80930F0187E076
:104300008093120124E630E047E050E06CE071E079
:1043100088E771D7892B09F06FCFA80126E0440FF9
:10432000551F2A95E1F78091710280FF89C0E1E372
:10433000F2E080E4DF011D928A95E9F7E6E9F1E019
:10434000FA87E9870EE811E08EE9A82E81E0B82E01
:1043500097E0392E44244394A985BA858D91BA8774
:10436000A987F80121918F01240F352F311D20518C
:104370003D4FE82FF0E0EF5CFD4F90E080E0632CD4
:10438000681A742C082E01C0770C0A94EAF76901A8
:10439000812CD6019D906D019720662D681967705C
:1043A000562E062E000C770BB92D01C0BB0F5A9468
:1043B000EAF77195619571096770772701C0969446
:1043C0006A95EAF79B2A6081562E59285082839479
:1043D00068E08612DECF019631968830910579F635
:1043E00089859A85A816B90609F0B6CF04E610E0CB
:1043F00020E430E041E352E060E488E77CD7892B99
:1044000009F0FACEE094F0948091EE029091EF02E0
:10441000E822F922F092EF02E092EE02EDCE8295D0
:10442000880F880F807480930E0198013695279528
:1044300020931101815C80930F012093120162CFC0
:1044400040515D4F04E610E020E430E0D5CFA3E01A
:10445000B0E0ECE2F2E2B0C719821A821B8288E770
:10446000C82E81E0D82E10E000E0EE24E394F12C79
:10447000F60181916F018F3F09F446C0F894E82F4F
:10448000E295EF70F0E021A18F70A70102C0440F08
:10449000551F8A95E2F7CA01922F982B91A392A1FA
:1044A0008095892382A3789400C0EBE7F1E0B12CDA
:1044B00031E021912F3F09F44EC0A22FA295AF7099
:1044C000B0E090968C9190E02F7002C09595879502
:1044D0002A95E2F780FD3FC0832FB82A330F51E0C1
:1044E000EE37F50731F7F601319780818F3F11F0F4
:1044F0000E946C0B80EA8A95F1F7E1E0F0E0EC0FA6
:10450000FD1FE00FF11FB0820F5F1F4F0330110539
:1045100009F0AECF43E050E0BE016F5F7F4F8BE10B
:1045200092E0ADD7892BD9F089819A81AB818093B4
:104530001B0290931C02A0931D0281E080931A023B
:104540000E94D813909319028093180210E0812FD3
:104550002396E9E04DC780E0C0CF10E023C0109162
:104560001A02112399F3E0901802F09019020E94A8
:10457000D8138E199F09059748F343E050E06BE18B
:1045800072E088E292E07BD7892B39F380911B029D
:1045900090911C02A0911D02809328029093290201
:1045A000A0932A0210921A02D2CFA6E0B0E0EAED60
:1045B000F2E207C70E94D8138C01809116029091F5
:1045C00017028017910779F019821A820E94D81376
:1045D000682F49815A81792F80E090E0F6DC1093B2
:1045E0001702009316022696E4E007C71F921FB633
:1045F0001F9211248F939F93AF93BF938091960244
:10460000811113C08091970290919802A091990214
:10461000B0919A024196A11DB11D8093970290938B
:104620009802A0939902B0939A02BF91AF919F9183
:104630008F911F901FBE1F901895CDB7DEB7E297E0
:104640000FB6F894DEBF0FBECDBF85B7806885BFBB
:1046500085B7806885BF84B7877F84BF0FB6F8941D
:10466000A89580916000886180936000109260003E
:104670000FBE80E890E00FB6F894809361009093AD
:1046800061000FBE81E0809316018AE69BE0909363
:10469000AF018093AE010E94A0080E944109809161
:1046A000E20084608093E20078948091A6028823DF
:1046B000A1F01091E9001F709091EC00892F81709A
:1046C00090FD80E8182B1092E9008091E80083FDAE
:1046D0000E9443141F701093E90082E084BD93E0B0
:1046E00095BD9AEF97BD80936E000E94C110811115
:1046F00002C00E944412E9E7F2E088E0DF011D9267
:104700008A95E9F781E08093250260E080E00E94CD
:10471000320B61E080E00E94320BEFE8F1E031976C
:10472000F1F700C0000010E080912502181708F48E
:104730006FC086E30E946C0B82E30E946C0B83E3E4
:104740000E946C0B85E30E946C0B84E30E946C0B4F
:1047500086EC0E946C0B83E0E8E2F2E0DF01282F98
:104760001D922A95E9F7EBE1F2E0DF011D928A95AF
:10477000E9F790E080E098D6833E9E4F21F40E94B6
:10478000C110811123C063EE7EEF90E080E0BAD6C5
:1047900060E082E090E09CD681E080931E0261E0C0
:1047A00083E090E095D660E074E184E090E0AAD6E2
:1047B0000E94441240E050E0BA018FE090E09AD6A7
:1047C00040E050E0BA0183E190E094D682E090E0CE
:1047D00063D680931F0284E090E066D690939502A2
:1047E0008093940234DEEFEFF6E721E0E150F040F1
:1047F0002040E1F700C000002ADE8091280280FFFF
:1048000019C06FEF7FEF90E080E07CD60E94F9093D
:1048100060E0812F0E94250B082F61E0812F0E940C
:10482000250BE12FF0E0EC5DFD4F880F802B80839E
:104830001F5F7ACF83E090E02FD60E94930E1092F4
:10484000710280E88093ED02A2D46BE070E08FE803
:104850009AE00E9469128823E9F18091710265E073
:1048600070E081FDA3C08AE89AE00E946912882363
:1048700089F16DE070E088E79AE00E946912882370
:1048800049F10E940A0A605A75418F4F9F4F609309
:104890007302709374028093750290937602E0EF36
:1048A000F2E080E094E0DF019C011D922150304055
:1048B000E1F7F093F706E093F6068FEF9FEF909302
:1048C000EF028093EE0281E080937802809377027A
:1048D0001092720280E091E0909391028093900296
:1048E00033243394222423948091A602853049F402
:1048F0008091A602853009F45CC00E9415140E94C4
:10490000C60AA5DD90912002809128029813A3C0C9
:10491000909121028091290298139DC090912202CA
:1049200080912A02981397C040DEF12C80912602D4
:10493000882351F01092260280917B0280937C02A2
:104940008091790280937A02E12C80912502E81609
:1049500008F4BBC090E08CEFE82E23E0D22E3DEFB0
:10496000C32E42E0B42E80917C0220917B02281756
:1049700009F49CC2E82FF0E0E358FD4F108117FBCB
:10498000002700F91F778F5F837080937C028091EE
:104990007A028F5F80937A020111D1C00E94D813EE
:1049A00019A3EAA29CA38BA3DDA2D0C085E89AE05C
:1049B0005CCF8091A602843031F10E947612109271
:1049C000960288E190E0A0E40FB6F894A895809351
:1049D00060000FBEA093600083B7817F846083BFB7
:1049E00083B7816083BF7894889583B78E7F83BFB8
:1049F0000FB6F894A895809160008861809360005C
:104A0000109260000FBE23DD809129029091280250
:104A1000892B90912A02892B09F46ACF8091A502F3
:104A2000882309F465CFB0E1B9BDE2E1E9BD09B47D
:104A300000FEFDCF8091D8008F7D8093D8008091BB
:104A4000E00082608093E0008091E00081FDFCCF77
:104A50000E9415144DCF58E2E52E52E0F52E00E2EB
:104A600012E0D12CD701CD907D01F80191908F01FA
:104A70009C1411F19C24B12CAA24A394892D8A2181
:104A800099F0BDA6DEA60E94D81398AB8FA729AADD
:104A900091E08C2D8A2109F490E09AAB4DA55EA59A
:104AA0006FA578A989A991DAB394AA0CF3E0BF1293
:104AB000E5CFF8013197C082D39423E0D212D2CF50
:104AC0000E940A0AFF24F39431CF61E08E2D0E94E8
:104AD000250B182F60E08E2D0E94250BE12FEE0F85
:104AE000E82B0E2D10E0D801AC5DBD4F9C91892FB5
:104AF0008370E81711F1990F990FE92BEC93EF7080
:104B0000F0E0E258FE4F0D5D1D4F8081D801DC9032
:104B1000D80EDC92B3E060E0BD1524F0EDEFDE16B8
:104B200024F461E08E2D0E94450B8D2DDD0C990B38
:104B300064E070E07BD4D8018C93E39406CF0E94AC
:104B4000D81319A3CAA29CA38BA3BDA23EA249A1BC
:104B50005AA16BA17CA18DA19EA137DA002389F017
:104B60000E94D8131FA3C8A69AA789A7BBA61CA6F4
:104B70004FA158A569A57AA58BA59CA526DA91E039
:104B8000F2CE0E94D8131FA3E8A69AA789A7DBA696
:104B9000EECF0E940A0AA2DA0E9490128CC13092D3
:104BA0008A02E7C130928B02ECC130928C022CC297
:104BB00030928D0231C200E210E0FE0131967F0199
:104BC0008091E80085FD0AC08091E8008B77809392
:104BD000E8000E94BF08882399F364C28091F10025
:104BE000D7018D937D010150110951F75BC21A82E3
:104BF0008CE08B831AC08A81823009F465C228F464
:104C0000813061F08FEF898310C0833001F18430EF
:104C1000C9F71B821C821D821E8207C00E940A0ADD
:104C20001ED46B837C838D839E83E0919002F091F0
:104C30009102309709F458CE0284F385E02D309725
:104C400009F452CE60E2CE01019609954DCE2B813A
:104C5000822F90E0FE013496245E8330910528F780
:104C6000DC01A85DBD4F3C91319301962813F5CF2F
:104C7000DCCF8A81823019F08530B9F2C3CF6B81E5
:104C80007C818D819E81EBD388E290E021D4CDCFD1
:104C90004C816B818A810E943E1198278927982731
:104CA0009E838D83C2CF2D813E81322723273227D9
:104CB0004C816B818A810E944B10B7CF0E9471108A
:104CC000B4CFB0E1BA83B1CF83E08A838FE791CFCD
:104CD000CA80DB80DC24CD24DC248C80912CB12C98
:104CE000A12C2601712C612CE1E8CE0ED11C9E0175
:104CF0002F5F3F4F790110E000E0C601800F911F48
:104D0000A80170E060E0481559056A057B0508F0C8
:104D10008CCF440D551D661D771D4F3753406105DF
:104D2000710550F4B9D3D70114968C930F5F1F4FC0
:104D3000FFEFEF1AFF0AE1CFF7011482F7CF0A81E4
:104D40001B811027012710278C80912CB12CA12CBE
:104D50002801712C612C0F571F4FF12CE12CC80139
:104D60008E0D9F1DA70170E060E0481559056A058A
:104D70007B0508F05ACF440D551D661D771D4F3732
:104D800053406105710540F4E1E0F0E0EC0FFD1FD8
:104D9000EE0DFF1D64819CD33FEFE31AF30ADFCFD2
:104DA0000E94081242CF84E08A833FCF8C80912CEE
:104DB000B12CA12CCA80DB80DC24CD24DC24F12C96
:104DC000E12C8E010F5F1F4F412C512C3201C60187
:104DD0008996481459046A047B0408F026CFA8E495
:104DE000CA16D104E104F10480F456D3F801848397
:104DF000BFEF4B1A5B0A6B0A7B0A0F5F1F4FEFEF87
:104E0000CE1ADE0AEE0AFE0AE2CFD80114961C92F0
:104E1000EFCF8C80912CB12CA12CCA80DB80DC24BC
:104E2000CD24DC24F12CE12C412C512C3201C60183
:104E30008996481459046A047B0408F0F6CEF8E415
:104E4000CF16D104E104F10440F4E1E0F0E0EC0F0E
:104E5000FD1FE40DF51D64813BD32FEF421A520A6A
:104E6000620A720A3FEFC31AD30AE30AF30ADFCFDA
:104E700041E08C81811101C040E06B818A810E94F8
:104E80000B110BCF2D813E8132272327322741E0A2
:104E90008C81811101C040E06B818A810E942010C9
:104EA000C4CE822B892B09F4D4C0D1C0911171CE0C
:104EB00015D9F11071CE86E0E8E8F2E0DE01119636
:104EC00001900D928A95E1F7B0908902F0908A02E4
:104ED000D0908B02C0908C02E0908D0210928A02DA
:104EE00010928B0210928C0210928D028F2D8D29C0
:104EF00009F447C000918602109187020E94D813DE
:104F00009C01201B310B90918102992309F4E9C087
:104F100025313105B0F19F3F19F09F5F90938102D9
:104F2000FF2059F00E94F70A9FEF1F140CF491E044
:104F3000899F802D112480938A02DD2059F00E94E0
:104F4000F70A91E01D140CF09FEF899F802D11242A
:104F500080938B0280918A02882399F010918B02B2
:104F6000112379F00E94170B882309F418CE80933F
:104F70008A02812F0E94170B882309F413CE809395
:104F80008B028E2D8C2909F447C000918402109168
:104F900085020E94D8139C01201B310B9091820244
:104FA000992309F499C021353105B0F19F3F19F0DB
:104FB0009F5F90938202CC2059F00E94D50A9FEF08
:104FC0001C140CF491E0899F802D112480938C0295
:104FD000EE2059F00E94D50A91E01E140CF09FEFCC
:104FE000899F802D112480938D0280918C028823CB
:104FF00099F010918D02112379F00E94170B8823EC
:1050000009F4D3CD80938C02812F0E94170B882343
:1050100009F4CECD80938D02809189028B1117C047
:1050200080918A02882311F0F81211C020918B021E
:10503000222311F02D110BC090918D02992311F0B4
:10504000E91205C030918C02332309F42ACF0E9463
:10505000ED1386E0FE013196A8E8B2E001900D92D2
:105060008A95E1F70E94C60A90912702891721F0DC
:10507000809327020E940A0A8091A602843009F0D8
:1050800033CC83E08093E9008091E80082FF2CCC50
:105090008091E80090E085FF06C00E94BF08882349
:1050A00009F489CD91E08091E8008B778093E80046
:1050B000992309F419CCE981E150E53108F0A2CD3A
:1050C000F0E0E952F54DC5C188E290E0E5D11B82E0
:1050D0001C821D828E83A9CD2B30310508F068CF4C
:1050E0009BCF2B30310508F018CF4BCFEF92FF92BA
:1050F0000F931F93CF93DF93182FEB011092BC00F7
:1051000084EA8093BC000E94D8137C018091BC008B
:1051100087FF27C08091B900887F883029F080916F
:10512000B900887F803181F51093BB0084E88093BB
:10513000BC000E94D8138C018091BC0087FF1DC069
:105140002091B900287F90E080E0283191F081E043
:1051500090E0203411F490E080E0919581959109E0
:1051600008C0C7010E94E413C817D90778F68EEF6C
:105170009FEFCDB7DEB7E6E03EC1C8010E94E41361
:10518000C817D907C8F6F3CF8FEF9FEFF2CF109271
:10519000B9008CE08093B80008950F931F93CF93CC
:1051A000DF93EB018093BB0084E88093BC000E94F6
:1051B000D8138C018091BC0087FF11C02091B900E9
:1051C000287F81E090E0283211F490E080E0919512
:1051D00081959109DF91CF911F910F910895CF3F54
:1051E000DC0741F3C8010E94E413C817D90710F780
:1051F0008EEF9FEFEFCFB0E0A0E0E0E0F9E2D8C0A3
:10520000782E5B016A0189010E94D8134C01C1E02C
:10521000D0E00431110550F0C5E0D0E00F3F100799
:1052200029F0C80164E170E0AAD0EB01BE01872D2E
:105230005DDF7C0197FF09C00F3F1007B9F3C40180
:105240000E94E4130817190788F7E501CA0CDB1C54
:10525000CC15DD0511F0F7FE08C084E98093BC0091
:10526000C701CDB7DEB7EDE0BFC0B801899195DFCA
:105270007C01EECFB0E0A0E0EFE3F9E299C0782E38
:105280005B016A0189010E94D8134C01C1E0D0E0A2
:105290000431110550F0C5E0D0E00F3F100729F0B0
:1052A000C80164E170E06BD0EB01BE01872D1EDF09
:1052B0007C0197FF09C00F3F1007B9F3C4010E949A
:1052C000E4130817190788F7E501CA0CDB1CCC1595
:1052D000DD0511F0F7FE08C084E98093BC00C7012A
:1052E000CDB7DEB7EDE080C0FE018491B80155DF97
:1052F0007C012196ECCFB0E0A0E0E0E8F9E257C0F5
:10530000682E762E5A0169010E94D8134C01C1E023
:10531000D0E00431110550F0C5E0D0E00F3F100798
:1053200029F0C80164E170E02AD0EB01BE01862DAE
:10533000DDDE7C0197FF1BC00F3F1007B9F3C401EE
:105340000E94E4130817190788F784E98093BC00CA
:10535000C701CDB7DEB7EEE046C0B80189911DDFC9
:105360007C01CC16DD0689F3F7FEF7CFEECFB8014E
:10537000872D13DF7C01E501CA0CDB1CF2CFAA1BD1
:10538000BB1B51E107C0AA1FBB1FA617B70710F030
:10539000A61BB70B881F991F5A95A9F78095909562
:1053A000BC01CD0108952F923F924F925F926F9270
:1053B0007F928F929F92AF92BF92CF92DF92EF92A5
:1053C000FF920F931F93CF93DF93CDB7DEB7CA1B26
:1053D000DB0B0FB6F894DEBF0FBECDBF09942A8851
:1053E000398848885F846E847D848C849B84AA84F9
:1053F000B984C884DF80EE80FD800C811B81AA8186
:10540000B981CE0FD11D0FB6F894DEBF0FBECDBF50
:10541000ED010895991B79E004C0991F961708F0D3
:10542000961B881F7A95C9F78095089597FB072EDC
:1054300016F4009406D077FD08D0A1DF07FC05D054
:105440003EF4909581959F4F0895709561957F4F9B
:105450000895EE0FFF1F0590F491E02D0994692740
:10546000962769277827872778270895FB01DC018D
:1054700002C005900D9241505040D8F70895FB01AD
:10548000DC0104C08D910190801921F441505040FD
:10549000C8F7881B990B0895F999FECF92BD81BD7D
:1054A000F89A992780B50895A8E1B0E042E050E06D
:1054B0002FC0DC01A40FB51F4150504040F0CB017C
:1054C000840F951F2E9105D041505040D8F7089574
:1054D000262FF999FECF92BD81BDF89A019700B4AD
:1054E000021639F01FBA20BD0FB6F894FA9AF99A4D
:1054F0000FBE08950396272FECDFEADF252FE9DFA3
:10550000242FE7CF0196272FE4DFE2CFDC01CB0188
:10551000FC01F999FECF06C0F2BDE1BDF89A3196C3
:1055200000B40D9241505040B8F70895F894FFCF61
:1055300027154F15A2154F15A2158215B415A215E2
:10554000B116BE16641A681A5A1A601A6C1A701AC2
:10555000741AFB1BFB1B321C321CBA1CD41C581CBB
:10556000581CD81C431D521D521DB01A221BB81ABC
:10557000831A871ABC1A8B1AC01ACC1A971A1B1BCB
:105580009B1AD01A9F1AD41AFB1AA31AD81A021BF4
:10559000A81ADD1AE51A8F1AC41A931AC81AAC1A77
:1055A000E11AF11A0A1B191B7D1AB41A291BF725D7
:1055B000FB253926482653265E2602260226022689
:1055C000022602266126642668269F26D026D32638
:0855D000D626092738274227DF
:1055D800160A05100010FB0FF60F18100021007FA7
:1055E80022000700000100AC04AC00000400044CD9
:1055F800617965722031004C617965722032004C06
:10560800617965722033004C6179657220300081C0
:105618008283E200E900EA00B500B600B700CD00D9
:105628008301CC008A019201940121022302240201
:105638002502260227022A02B300B4006F00700078
:105648009F01CB019F02A0023632333534C600FFDA
:105658000100010000FFFF0000010001FF00000839
:105668001018202830383830282018100800442214
:0E567800B684096209AC08080B210B410B0037
:00000001FF
