:100000000C949E0B0C94BB0B0C94BB0B0C94BB0B75
:100010000C94BB0B0C94BB0B0C94BB0B0C94BB0B48
:100020000C94BB0B0C94BB0B0C9402180C94461F45
:100030000C94DB290C94BB0B0C94BB0B0C94BB0BEA
:100040000C94BB0B0C94BB0B0C94BB0B0C94BB0B18
:100050000C94BB0B0C94DB180C94BB0B0C94BB0BDB
:100060000C94BB0B0C94BB0B0C94BB0B0C94BB0BF8
:100070000C94BB0B0C94BB0B0C94BB0B0C94BB0BE8
:100080000C94BB0B0C94BB0B0C94BB0B0C94BB0BD8
:100090000C94BB0B0C94BB0B0C94BB0B0C94BB0BC8
:1000A0000C94BB0B0C94BB0B0C94BB0B00F070704E
:1000B000E0C00000000080E07070F00000F0F09000
:1000C0009090909090F0E0800000F0F0F0808080C0
:1000D00080C0E030100000E0F09090909090909000
:1000E0000000000000000000000000000000000010
:1000F0000000000000000000000000000000000000
:1001000000000000000000000000000000000000EF
:1001100000000000000000000000000000000000DF
:10012000000000000000000000000000000F0000C0
:100130000003070E0E07030100000F00000F0F0859
:100140000808080808080F0F00000F0F0F00000034
:100150000001070F0C0800070F0C080808080F071C
:10016000000000008080807070707070707070701F
:10017000707070707070707070707070707070707F
:10018000707070707070707070707070707070805F
:1001900080000000000000000000000000000000DF
:1001A000000000000000000000000000000000004F
:1001B000000000000000000000000000000000003F
:1001C000000000000000000000000000000000002F
:1001D000000000000000000000000000000000001F
:1001E0000000FEFE01010100000000C0C0C00000D0
:1001F000000000000000003030000000000030303F
:1002000000000000000000000000000000000001ED
:1002100001FEFE00000000000000000000000000E1
:1002200000000000000000000000000000000000CE
:1002300000000000000000000000000000000000BE
:1002400000000000000000000000000000000000AE
:10025000000000000000000000000000000000009E
:100260000000FFFF00000000000000000000000090
:100270000000000000606000000000000000F8FCCA
:100280000303030303181C62636380808080808003
:1002900080FFFF6060601C1C0303030303FCFC0081
:1002A000000000000000000000000000000000004E
:1002B000000000000000000000000000000000003E
:1002C000000000000000000000000000000000002E
:1002D000000000000000000080C0C0C0C0C0C0C05E
:1002E000F0F0FFFF0000000000C0C00000000C0C98
:1002F000000000000000003030000000F0F00F0FA0
:100300000000000000000080C0C0030303030303DB
:100310000303030000000000C0C00000000F0FF046
:10032000F0000000000000000000000000000000DD
:1003300000000000000000000000000000000000BD
:1003400000000000000000000000000000000000AD
:10035000000000001F1FE7E7E0E0E0E0E0F8F8F849
:100360001818FFFF0000000000010140E0E000005D
:10037000000018181800000000000000FFFF8000B7
:10038000F8F8F8F8F80607C7E7E70000000080E093
:10039000C00707000080E7E7070778F8F8F8F8FFDC
:1003A000FF0000000000000000000000000000004E
:1003B000000000000000000000000000000000003D
:1003C000000000000000000000000000000000002D
:1003D000000000000000000000000000000000001D
:1003E0000000FFFF1C0C0C7070F0F0707070F0F0EB
:1003F0007070707070F0F0707070707070707373F7
:100400007C7C7C7070F0F07373737373F3F3F3732D
:1004100073F3F37373737373F0F00C0C0C0303003A
:100420000000000000000000000000007C060C3806
:100430006060300C067E003C7E424242427E0000FC
:100440007E424242427E3C007E7E4242424E7C30B0
:10045000007C42424242467C0042261C18386442DC
:10046000000007070606060606010100000001015C
:100470000606060606070700000000000000000050
:100480000000000000010106060606060707070037
:10049000000101060606060607070000000000002E
:1004A00000000000000000000000000000F070707C
:1004B000E0C00000000080E07070F00000F0F090FC
:1004C0009090909090F0E0800000F0F0F0808080BC
:1004D00080C0E030100000E0F090909090909090FC
:1004E000000000000000000000000000000000000C
:1004F00000000000000000000000000000000000FC
:1005000000000000000000000000000000000000EB
:1005100000000000000000000000000000000000DB
:10052000000000000000000000000000000F0000BC
:100530000003070E0E07030100000F00000F0F0855
:100540000808080808080F0F00000F0F0F00000030
:100550000001070F0C0800070F0C080808080F0718
:10056000000080806070300C0C0C0C0C0C0C0C0C1F
:100570000C0C0C0C0C0C0C0C0C0C0C0C0C0C0C0CBB
:100580000C0C0C0C0C0C0C0C0C0C0C0C0C0C0C7047
:1005900060808000000000000000000000000000FB
:1005A000000000000000000000000000000000004B
:1005B000000000000000000000000000000000003B
:1005C000000000000000000000000000000000002B
:1005D000000000000000000000000000000000001B
:1005E0000000FFFF0000000000000030303000007D
:1005F000000000000000000E0E0000000000060ECB
:10060000C0E0E0E0E00000C0C0C00000000000006A
:1006100000FFFF0000000000C0C0C0C0C00000001C
:1006200000000000000000000000000000000000CA
:1006300000000000000000000000000000000000BA
:1006400000000000000000000000000000000000AA
:10065000000000008080E06060606080800000003A
:100660000000FFFF0000000000000000000080808C
:1006700000000000001C1C00000000000000FFFF44
:1006800000000000000303031C1C606060606060E9
:10069000707F7F1C1C0C03030000000000FFFF00A4
:1006A000000000000000000000000000000000004A
:1006B000000000000000000000000000000000003A
:1006C000000000000000000000000000000000002A
:1006D000000000000F0F3030C0C0C0CFCF0E0C0C98
:1006E0000C0EFFFF0000000000303000000003018E
:1006F000000000000000000C0C000000FCFC0303E4
:100700000000000000C0C0C0F8F8000000000000B9
:1007100000C0C0000000C0C0F0F00000000303FCF7
:10072000FC000000000000000000000000000000CD
:1007300000000000000000000000000000000000B9
:1007400000000000000000000000000000000000A9
:100750000000000000000000000101010102060687
:100760000606FFFF800000000000001818180000B7
:100770000000060706000000000000001F1F60E0E8
:100780001E1F1F1F1F000000F8F8E0E0E0E0E0F887
:10079000F8E0E0E0E0E0F8F800001E1F1FFFFF1F98
:1007A0001F0000000000000000000000000000002A
:1007B0000000000000000000000000000000000039
:1007C0000000000000000000000000000000000029
:1007D000000000000000000000000000000000FC1D
:1007E000FCFCC3C3C3C3C33C3C0C0C3C3C9CCCCC06
:1007F000CCCCFCFCFC0C0C0C0C0C0C0C0C0C0C0CE9
:100800000F0F1F3C3CCCCCCCCCCCFCFC1C0C3C3C9F
:100810002CCCCC8CCCECFCFC0C0C030303000000B7
:100820000000000000000000000000007C060C3802
:100830006060300C067E003C7E424242427E0000F8
:100840007E424242427E3C007E7E4242424E7C30AC
:10085000007C42424242467C0042261C18386442D8
:100860000101010101010000000000000000010180
:100870000101010100000000000000000000000074
:100880000000000000010101010101010000000061
:100890000001010101010101000000000000000051
:1008A00000000000000000000000000000F0707078
:1008B000E0C00000000080E07070F00000F0F090F8
:1008C0009090909090F0E0800000F0F0F0808080B8
:1008D00080C0E030100000E0F090909090909090F8
:1008E0000000000000000000000000000000000008
:1008F00000000000000000000000000000000000F8
:1009000000000000000000000000000000000000E7
:1009100000000000000000000000000000000000D7
:10092000000000000000000000000000000F0000B8
:100930000003070E0E07030100000F00000F0F0851
:100940000808080808080F0F00000F0F0F0000002C
:100950000001070F0C0800070F0C080808080F0714
:10096000000080806070300C0C0C0C0C0C0C0C0C1B
:100970000C0C0C0C0C0C0C0C0C0C0C0C0C0C0C0CB7
:100980000C0C0C0C0C0C0C0C0C0C0C0C0C0C0C7043
:1009900060808000000000000000000000000000F7
:1009A0000000000000000000000000000000000047
:1009B0000000000000000000000000000000000037
:1009C0000000000000000000000000000000000027
:1009D0000000000000000000000000000000000017
:1009E0000000FFFF00000000000000303030000079
:1009F000000000000000000E0E0000000000C6CE47
:100A0000C0C0C00000000040C0C0000000000000E6
:100A100000FFFF000000C0C0C0C0000000000000D8
:100A200000000000000000000000000000000000C6
:100A300000000000000000000000000000000000B6
:100A400000000000000000000000000000000000A6
:100A500000000000FCFC9C9C1C1C1C7C7CF0E080CA
:100A60008080FFFF00000000000000000000808088
:100A700000000000001C1C0000000000FFFF000040
:100A80000000000303181C606060606060606060CC
:100A9000601F1F07030300000000FFFFFF000000AE
:100AA0000000000000000000000000000000000046
:100AB0000000000000000000000000000000000036
:100AC0000000000000000000000000000000000026
:100AD0000000000003030F0F3E3C3CF0F0C1C3CF09
:100AE000CFCFFFFF00000000003030000000030106
:100AF000000000000000000C0CFCFCFC03030000E4
:100B0000000000C0C0F0F00000000000000000C0C5
:100B100080000080C0C0F0F00000010303FCFC0076
:100B200000000000000000000000000000000000C5
:100B300000000000000000000000000000000000B5
:100B400000000000000000000000000000000000A5
:100B5000000000000000000000000000000000078E
:100B60000787FFFF80000000000000181818000031
:100B70000000060706000000001F1F1FE0E01E1F08
:100B80001F1F1F000078F8E0E0E0E0E0F8F8F8E070
:100B9000E0E0E0F8F87800001E1FFFFF7F1F1F0055
:100BA0000000000000000000000000000000000045
:100BB0000000000000000000000000000000000035
:100BC0000000000000000000000000000000000025
:100BD00000000000000000000000000000FCFC839A
:100BE00083838383E3F3F37C7C0C0CFCFCFC8C8C14
:100BF0008C8C7C7C7C0C0C0C0C0C0C0C0C0C0F0FDF
:100C00007C7C7C8C8C8C8CFCFCFC0C0C7C7C7C8C34
:100C10008C8C8C7C7C7C0C0C03030000000000009E
:100C20000000000000000000000000007C060C38FE
:100C30006060300C067E003C7E424242427E0000F4
:100C40007E424242427E3C007E7E4242424E7C30A8
:100C5000007C42424242467C0042261C18386543D2
:100C6000010101010101000000000000010101017A
:100C70000101000000000000000000000000000072
:100C8000000000010101010101010000000000015C
:100C90000101010000000000000000000000000051
:100CA00000000000000000000000000005010980B5
:100CB000A101850319012AB700150126B700950186
:100CC00075108100C0050C0901A101850419012AD4
:100CD000A002150126A002950175108100C00660D2
:100CE000FF0961A1010962150026FF009520750822
:100CF00081020963150026FF00952075089102C046
:100D000005010906A101050719E029E715002501DC
:100D10009508750181029501750881010507190083
:100D200029FF150026FF00950675088100050819A2
:100D3000012905150025019505750191029501759B
:100D4000039101C000DA1281FFD9F1DB20A4A62EA5
:100D5000AF00A0C0D30000A1C8D30000AED580A8CA
:100D60003F408D142000643214783C1E1E140A0586
:100D7000FD377A585A000004E6D6B4460200210135
:100D800016000000742FE5A3E000DD00915D003D3A
:100D90008889C65436C3174FE4E29935D149A46710
:100DA000EC4361B194F8C4C447CD20684DE361477A
:100DB0002E748DBC5D1806048BE6C47030191E9D20
:100DC000055D85AD3DA0D70DE70E48B821FF9934EC
:100DD000BF1DD50551688FA5810C87488584A8EB78
:100DE00039F310C2A3E929B5A035B5C2349E5568C0
:100DF000649525FDDB51CBD5E6AC33BC5FBB14CF8E
:100E0000349F271222C1B5D3A2DC1FD276A662DEA0
:100E100069FAF39A103BD9F3ED687A3BC8ABAF009F
:100E2000000000007C03B253E212B2430001AD01A6
:100E3000DE010000C05BFE9CB1C467FB0200000045
:100E40000004595A000101010101010101010202DE
:100E50000202020202020203030303030303030468
:100E60000404040404040505050505060606060633
:100E7000070707070708080808090909090A0A0AED
:100E80000B0B0B0C0C0C0D0D0D0E0E0E0F0F0F108F
:100E90001011111112121313141415151616171719
:100EA000181819191A1A1B1B1C1D1D1E1E1F202085
:100EB000212222232424252626272829292A2B2CCF
:100EC0002D2D2E2F30313232333435363738393AF2
:100ED0003B3C3D3E3F404142434445464748494AEA
:100EE0004C4D4E4F50515354555658595A5B5D5EB8
:100EF0005F616264656668696B6C6D6F7072737553
:100F000077787A7B7D7E8082838587888A8C8E8FB6
:100F100091939596989A9C9EA0A2A3A5A7A9ABADE4
:100F2000AFB1B3B5B7BABCBEC0C2C4C6C9CBCDCFD2
:100F3000D1D4D6D8DBDDDFE2E4E7E9EBEEF0F3F580
:100F4000F8FAFDFF2223252628292A2C2D2F3032BE
:100F5000333536383A3B3D3E4042434547494A4C9B
:100F60004E5051535557595A5C5E606264666869C9
:100F70006B6D6F71737577797B7D7F8183858789D1
:100F80008A8C8E90929496989A9C9E9FA1A3A5A7D6
:100F9000A8AAACAEAFB1B3B4B6B8B9BBBCBEBFC102
:100FA000C2C3C5C6C7C9CACBCCCDCED0D1D2D2D38D
:100FB000D4D5D6D7D7D8D9D9DADADBDBDBDCDCDCA1
:100FC000DCDCDDDDDDDDDCDCDCDCDCDBDBDBDADA64
:100FD000D9D9D8D7D7D6D5D4D3D2D2D1D0CECDCCDB
:100FE000CBCAC9C7C6C5C3C2C1BFBEBCBBB9B8B6F0
:100FF000B4B3B1AFAEACAAA8A7A5A3A19F9E9C9A7B
:1010000098969492908E8C8A89878583817F7D7B48
:1010100079777573716F6D6B6968666462605E5C29
:101020005A5957555351504E4C4A494745434240EF
:101030003E3D3B3A3836353332302F2D2C2A292885
:101040002625232200AF00AE0100010001000100AF
:101050000100010001520000000001000100010038
:101060000100010001000252000000000100010027
:101070000100010001000100035200000000010016
:101080000100010001000100010000520000000009
:10109000A900AA00A900AA00A900AA002278217824
:1010A00009025B00030100A0FA090400000103012A
:1010B00001000921110100012244000705810308F4
:1010C00000010904010002030000000921110100D0
:1010D00001222200070582032000010705030320E7
:1010E00000010904020001030000000921110100B0
:1010F00001223200070584032000011201000200D2
:10110000000008364B424D2001010203011C03760A
:1011100000690061006C003A00660036003400632C
:1011200000320062003300630000000A034D0042F9
:10113000004B00360000000E034D004F00440042FB
:10114000004F0058000000040309040000000000E4
:10115000000000000000000000000000000000008F
:101160000000000000000000000000000000007E01
:101170000F00D4FFFFFFC700000078000000000050
:101180000000002A2B2800000000000000000000E2
:1011900000000000000029000000002C1E34202167
:1011A0002224342627252E362D3738271E1F2021AE
:1011B00022232425263333362E37381F040506070D
:1011C00008090A0B0C0D0E0F101112131415161727
:1011D00018191A1B1C1D2F3130232D350405060745
:1011E00008090A0B0C0D0E0F101112131415161707
:1011F00018191A1B1C1D2F3130354C07087F0807A2
:10120000003E5B4F5B3E003E6B4F6B3E001C3E7CE6
:101210003E1C00183C7E3C18001C577D571C001CCF
:101220005E7F5E1C0000183C180000FFE7C3E7FF6C
:1012300000001824180000FFE7DBE7FF0030483A01
:10124000060E00262979292600407F050507004063
:101250007F05253F005A3CE73C5A007F3E1C1C0896
:1012600000081C1C3E7F0014227F2214005F5F00D8
:101270005F5F0006097F017F00006689956A006054
:10128000606060600094A2FFA2940008047E0408DD
:101290000010207E20100008082A1C0800081C2AC4
:1012A0000808001E10101010000C1E0C1E0C003040
:1012B000383E383000060E3E0E06000000000000EA
:1012C0000000005F000000000700070000147F140A
:1012D0007F1400242A7F2A12002313086462003638
:1012E0004956205000000807030000001C2241005E
:1012F000000041221C00002A1C7F1C2A0008083E16
:101300000808000080703000000808080808000085
:1013100000606000002010080402003E5149453E74
:101320000000427F4000007249494946002141497E
:101330004D33001814127F10002745454539003CF5
:101340004A494931004121110907003649494936C6
:1013500000464949291E00000014000000004034E6
:10136000000000000814224100141414141400009A
:1013700041221408000201590906003E415D594E00
:10138000007C1211127C007F49494936003E4141E0
:101390004122007F4141413E007F49494941007F50
:1013A00009090901003E41415173007F0808087F87
:1013B0000000417F4100002040413F01007F0814B0
:1013C0002241007F40404040007F021C027F007F9E
:1013D0000408107F003E4141413E007F0909090693
:1013E000003E4151215E007F0919294600264949E6
:1013F00049320003017F0103003F4040403F001F8E
:101400002040201F003F4038403F00631408146311
:10141000000304780403006159494D4300007F41F3
:10142000414100020408102000004141417F0004B6
:101430000201020400404040404000000307080051
:10144000002054547840007F2844443800384444F5
:10145000442800384444287F00385454541800006D
:10146000087E09020018A4A49C78007F0804047870
:101470000000447D4000002040403D00007F1028D7
:1014800044000000417F4000007C04780478007C28
:101490000804047800384444443800FC1824241814
:1014A0000018242418FC007C080404080048545444
:1014B00054240004043F4424003C4040207C001C91
:1014C0002040201C003C4030403C00442810284470
:1014D000004C9090907C004464544C4400000836CA
:1014E00041000000007700000000413608000002C3
:1014F00001020402003C2623263C000000000000FC
:1015000000404040F0F8F8FF38FFF8F83FF8F8FFE7
:1015100038FFF8F8F040404000000000000080C0B4
:10152000C0C0800000C0C08000000080C0C000C0FB
:10153000C0000080C0C00000000000C0C0C0C0C02B
:1015400000C0C0000000000000000000000000001B
:10155000000000000000000000000000000000008B
:10156000000000000000000000000000000000007B
:1015700000000000000000000000C0F0F8FC3E1E6B
:1015800006010000007F4141417F007F4141417FD2
:10159000000080C0E07E5B4F5BFEC00000C000DC4E
:1015A000D7DEDEDED7DC00C0000000000000000057
:1015B000000000000000000000000000000000002B
:1015C00000494949FFFFFFFFE0DFBFBF00BFBFDFAA
:1015D000E0FFFFFFFF49494900000000001F3F6096
:1015E00060E0BF1F007F7F071E381E077F7F007FE0
:1015F0007F0E1F3B716000000000007F7F0C0C0C11
:10160000007E7E007F7E0303007F7E03037E7E03D9
:10161000037F7E000F3E703C063C703E0F00327B25
:1016200049493F7E007F7E0303001E3F69696F26A4
:1016300000000000000000000000030F1F3F3C7886
:1016400070600000007F4141417F007F4141417F48
:1016500000307B7F7830202030787F3B0003000F04
:101660007F0F0F0F7F0F000300000000000000003D
:10167000000000000000000000000000000000006A
:1016800000010101070F0F7F0F7F0F0F7E0F0F7FEC
:101690000F7F0F0F07010101000000000000000094
:1016A0000000010100000000000000000000000038
:1016B000000000000000000000000000000000002A
:1016C000000000000000000000000000000000001A
:1016D000000000000000000000000000000000000A
:1016E00000000000000000000000000000000000FA
:1016F00000000000000000000000000000000000EA
:1017000000000000000000000000000000000000D9
:1017100000000000000000000000000000000000C9
:1017200000000000000000000000000000000000B9
:1017300000000000000000000000000011241FBE97
:10174000CFEFDAE0DEBFCDBF11E0A0E0B1E0E8E925
:10175000F7E602C005900D92A63CB107D9F726E046
:10176000A6ECB1E001C01D92A63EB207E1F70E94CF
:10177000022A0C9468330C940000482F2091D70261
:1017800090919E0257E0291302C080E0089530E056
:10179000529FF001539FF00D1124E156FD4F8181BE
:1017A000681306C08081481303C085818111EECF84
:1017B0002F5F3F4F2770E7CFE8EDF0E080818E7F0D
:1017C00080831092E2001092DA001092E100A0EE05
:1017D000B0E08C9181608C9380818F77808319BC7D
:1017E000A7EDB0E08C918E7F8C9380818F7E80837B
:1017F0001092870208952091E4003091E50095E66B
:10180000A9012091EC00822F817020FF06C08091F9
:10181000E80080FF06C080E008952091E80022FDE6
:101820001AC080919402882389F0853089F08091D4
:10183000EB0085FD0FC02091E4003091E5004217D8
:101840005307F9F29150E1F684E0089582E008959B
:1018500083E0089581E008958091960287FF13C088
:101860008091E80082FF06C08091E8008B7780932A
:10187000E80004C0809194028111F2CF0895809114
:1018800094028823D9F38091E80080FFF8CF8091FB
:10189000E8008E77ECCF982F9093E900242F762FD5
:1018A00050E0891731F07091EC002091ED005091DB
:1018B000F00021FD07C09F5F973071F78093E9002A
:1018C00081E008953091EB003E7F3093EB00309142
:1018D000ED003D7F3093ED003091EB0031603093AF
:1018E000EB007093EC002093ED005093F0002091FA
:1018F000EE0027FDE0CF80E00895B0E0A0E0E3E84F
:10190000FCE00C945632C8EDD0E088818F7E88834D
:10191000E7EDF0E080818160808384E082BF81E038
:101920008093870288818E7F888302EE10E0F80121
:1019300010821092DA0081EEC82ED12CF6011082AE
:1019400088818F77888388818068888388818F7D6C
:10195000888319BC109294021092950210929302FF
:101960001092920290EEE92EF12CF70180818B7F8C
:10197000808388818160888342E060E080E00E940B
:101980004B0CF60180818E7F8083F801808181601D
:101990008083808188608083F70180818E7F80834F
:1019A000888180618883CDB7DEB7E8E00C9472321D
:1019B000FC0180919C0290919D0286179707A0F0F0
:1019C0006115710529F49091E8009E779093E800E5
:1019D00090E06115710551F4911108C08091E80003
:1019E00082FF34C080E00895BC01F2CF8091940260
:1019F0008823C1F18530C1F18091E80083FD30C0BA
:101A00008091E80082FDEACF8091E80080FFE1CF7D
:101A10008091F3002091F200382F6115710519F0C3
:101A20002830310558F091E02830310509F090E078
:101A30002091E8002E772093E800CBCF819180930E
:101A4000F100615071092F5F3F4FE7CF8091940201
:101A5000882341F0853041F08091E80083FFBECFBC
:101A600081E0089582E0089583E00895089508953F
:101A7000089580918902089587E797E79093010878
:101A80008093000888E19AE00FB6F894A8958093B7
:101A900060000FBE90936000FFCF2FB7F894609165
:101AA00083027091840280918502909186022FBFFB
:101AB00008959C01FC0132969FEF80E0419146170A
:101AC00051F09F3F19F4411101C0982F8F5F86306C
:101AD000A9F79F3F09F40895290F311D97FD3A9505
:101AE000F90162830895A3E0B0E0E9E7FDE00C941A
:101AF0005C32209180023091810228173907A1F0D1
:101B00009093810280938002E0917E02F0917F02A7
:101B1000309751F024E029839B838A830084F185E8
:101B2000E02DCE01019609952396E2E00C947832DF
:101B3000A3E0B0E0EEE9FDE00C945C3220917C0281
:101B400030917D0228173907A1F090937D02809390
:101B50007C02E0917E02F0917F02309751F023E009
:101B600029839B838A830084F185E02DCE01019631
:101B700009952396E2E00C947832E0917E02F09190
:101B80007F02309729F00190F081E02D09950895AA
:101B900080E00895FA01811101C0FB0109950895C3
:101BA00080912202982F9C7F61F4837084608093DF
:101BB000220280912502873918F086E98093250258
:101BC00008958034B0F383708C63F1CFAF92BF92ED
:101BD000DF92EF92FF920F931F93CF93DF93082F23
:101BE000162FE901E42FF0E0EC5BF14F611110C01A
:101BF000E4915E2F4E2F4983E8835A83DF91CF9182
:101C00001F910F91FF90EF90DF90BF90AF900895DC
:101C1000E62EF12C4491D42EE42FF0E026E0829FB2
:101C2000C00111242FEF30E0B9010E943832802F1B
:101C300090E0880F991F55E5569FD001579FB00D32
:101C400011248A1B9B0B982F990F890F5901AE18ED
:101C5000BF08AE9ED001AF9EB00DBE9EB00D112448
:101C60005B2F189F80011124012F11275901A01A01
:101C7000B10AAE9E8001AF9E100DBE9E100D1124C4
:101C80005901A81AB108AE9CC001AF9C900DBE9C32
:101C9000900D1124892F9927281B390B2E9FC001E5
:101CA0002F9F900D3E9F900D1124E92F62307105FA
:101CB000A1F050F46115710509F49DCF61307105F3
:101CC00081F0EB2F512F97CF6430710569F080F0D0
:101CD0006630710509F48FCFF4CFE42F4B2F592FC5
:101CE0008ACFE42F412F87CFEB2F542F492F83CF5B
:101CF0004B2F5D2DE12F7FCF80E00895F894E82FE2
:101D0000E295EF70F0E031A1282F2F7081E090E094
:101D100001C0880F2A95EAF7982F9095932391A3F5
:101D200092A1892B82A3789408959091FB0192FF50
:101D300010C041E0282F2471243009F040E031E048
:101D4000282F2871283009F030E0431711F02CE0DB
:101D5000822793FF10C041E0282F2471243109F01D
:101D600040E031E0282F2871283109F030E0431796
:101D700011F02CE082273091FC0130FF10C051E0BF
:101D8000282F2171213009F050E041E0282F2871DF
:101D9000283009F040E0541711F029E0822731FF84
:101DA00010C041E0282F2171213109F040E031E0DD
:101DB000282F2871283109F030E0431711F029E06D
:101DC000822794FD877E089582389105B9F1B0F499
:101DD0008133910509F47DC048F48932910509F4F5
:101DE0006DC08A32910509F47BC008958533910551
:101DF00009F45FC08933910509F10895833E910587
:101E0000D9F138F4803E910529F1823E910579F1AE
:101E10000895863E9105D9F1873E910509F43EC0AB
:101E2000843E910541F52091FC0121FF24C0809161
:101E3000FB0184FD19C087EE90E008952091FB011D
:101E4000237009F05AC02091FC0123FF14C089E2DD
:101E500090E008952091FB0120FD38C03091FC01F5
:101E600030FF09C024FF43C090E080E00895209136
:101E7000FB0122FDF7CF08952091FB0122FD3AC01E
:101E80003091FC0130FD39C024FFF5CFEDCF20911A
:101E9000FB0123FFF0CF24FDE7CFCDCF2091FB0145
:101EA00023FD2EC03091FC0131FFEECF84EE90E097
:101EB00008952091FB0125FFDECFC9CF2091FB01C2
:101EC00025FD21C02091FC0123FFD5CF89E390E0BF
:101ED000D2CF2091FB0126FFCECF8AE290E0089579
:101EE0002091FB0126FFC7CF81E390E0089583EEA8
:101EF00090E0089582EE90E0089580EE90E00895DD
:101F000086EE90E0089585E390E008951F93CF93C7
:101F1000DF930E94E40EEC01C11580E5D807F0F5CF
:101F2000C11580E4D80708F09CC0C03ED10520F55B
:101F3000CD3CD10508F082C0C83AD10578F4C53A45
:101F4000D10508F073C0C130D10519F1209709F10E
:101F5000C430D105F0F4D0E0C0E01BC0C33CD105D3
:101F6000D0F7C85AD0E0CC0FDD1FC65BDE4F09901A
:101F7000D881C02DD4640DC0C11580E2D80708F007
:101F8000D1C0C11581E0D80708F05AC0C83ED105BC
:101F900010F7CE01DF91CF911F910895C03682E5F1
:101FA000D80718F5C03482E5D80708F06BC0C032F6
:101FB00082E5D80708F05FC0C11582E5D80708F4AC
:101FC00097C02C2F2695269580E2289F90011124FA
:101FD0008C2F8370C1E0D0E002C0CC0FDD1F8A954A
:101FE000E2F7C22BD32BDD68D4CFC03A82E5D80705
:101FF00060F4C03882E5D80708F459C0CF71D0E04A
:10200000DC2FCC27C46FD06AC4CFC03C82E5D80790
:1020100008F462C0C03E82E5D80708F09CCFDC2FF0
:10202000CC27CC27DF71C06FD06AB3CFC55AD0E0C0
:10203000C95BDE4FC881D0E0D064ABCFD065A9CFFB
:102040008D2F0E94950E182FCE0199270E94E40E25
:10205000C12FD0E0DC2FCC27CC27DF71C82BD92BA8
:1020600098CFCE0199270E94E40ECC27DF70C82BB1
:10207000D92BD06A8ECFCF71D0E0DC2FCC27C16FA7
:10208000D06A87CF2C2F26952695277080E2289F2F
:10209000900111248C2F8370C1E0D0E002C0CC0FDE
:1020A000DD1F8A95E2F7C22BD32BDC6872CF2C2F71
:1020B00026952695277080E2289F900111248C2F69
:1020C0008370C1E0D0E002C0CC0FDD1F8A95E2F73B
:1020D000C22BD32BDA685DCF8C2F8F710E94950EA7
:1020E000C82FD0E0DC2FCC27CC27DF71D06251CFB6
:1020F0008C2F8F710E94950E55E0D695C7955A95F5
:10210000E1F7CF70D0E0DC2FCC27282F30E084FF20
:1021100005C044E0220F331F4A95E1F7C22BD32BB1
:10212000D06937CF8D2F8F710E94950E182FCE0159
:1021300099270E94E40EC12FD0E0DC2FCC27CC27BA
:10214000DF71C82BD92BD2CF8091F101882331F0D8
:102150001092F1011092F0011092EF010895809514
:102160009091EE0198239093EE0108951092E4016E
:102170001092E3011092E20108959091E101292F5C
:10218000282321F0809589238093E101089580918F
:10219000D70290919E02981301C008958F5F8770B7
:1021A000FACFA82FA77023E0969587952A95E1F797
:1021B000FC01EE0FFF1FE80FF91FE60FF71F50E0BD
:1021C00040E080E0219130E00A2E02C0369527954C
:1021D0000A94E2F721703327042E01C0220F0A94DB
:1021E000EAF7822B4F5F5F4F4330510559F708954F
:1021F000903FC9F0933080F48330A8F4282F30E06A
:1022000064ED71E0A901E3E09E9F400D511D112492
:10221000CA010E94D11008959C5F923020F461EDB4
:1022200071E090E0F6CF80E00895262F277091E0CE
:1022300001C0990F2A95EAF723E0769567952A95CC
:10224000E1F7FB01EE0FFF1FE60FF71FE40FF51F8D
:1022500050E040E0682F70E08191DF0111979B0111
:10226000042E02C0369527950A94E2F72170219535
:102270002827292328272C934F5F5F4F4330510590
:1022800059F70895282F862F903F79F0933070F4F6
:10229000233058F4622F70E023E0929F600D711D8F
:1022A000112444ED51E00E94151108959C5F923075
:1022B000E0F7622F70E041ED51E0F5CF80933102FD
:1022C00008959091310221E030E0F90101C0EE0F54
:1022D0008A95EAF7D90102C0AA0FBB1F6A95E2F7F7
:1022E000EA2B01C0220F4A95EAF7892F8E23E813C3
:1022F00005C0292B822F0E945E1108952095292365
:10230000F9CF21E030E001C0220F8A95EAF720954D
:102310008091310282230E945E1108959091E40120
:10232000809589238093E401282F277069F4891709
:1023300059F09091FC0192FF07C08695869586958D
:102340000E9481110E94B610089521E030E001C082
:10235000220F8A95EAF780913102822B0E945E114A
:1023600008958093F20108959C013A9521153F410B
:1023700050F5FC01EE27F170BC0166277270AC01CC
:10238000442754709C012227387094FF0EC080E1CE
:10239000EF2B09F480E0672B09F08062452B09F0F0
:1023A0008064232B89F08068089581E0EF2B09F485
:1023B00080E0672B09F08260452B09F08460232BB5
:1023C00019F08860089580E00895CF93DF93C0915D
:1023D000E406D091E5068A30C1F42091DB02CE01FB
:1023E0008E5D9240622F70E00E943832281B822F4F
:1023F00066E00E948332C82FC15018F4DF91CF915C
:10240000089580E20E94E511F7CF8D30E9F4CE5DAA
:10241000D2402091DB02622F70E0CE010E94383260
:10242000281B822F9E01280F311D2115344018F0E2
:1024300080E0D0E0C0E0C80FD11DC252DD4FD09384
:10244000E506C093E406DACF96E0FE01AEEDB6E015
:1024500001900D929A95E1F7803E08F458C086E00D
:10246000FE0111928A95E9F7C091E406D091E50644
:1024700046E050E0BE018EED96E00E94FC329E01E7
:102480002E5D3240892B41F1C90146E09695879532
:102490004A95E1F741E050E0BA0102C0660F771FAC
:1024A0008A95E2F7CB016091DC027091DD02862B08
:1024B000972BB9016B5F7F4FE6E076956795EA95BC
:1024C000E1F702C0440F551F6A95E2F7842B952B64
:1024D0009093DD028093DC022A5F3F4F4091DB0244
:1024E000642F70E0C9010E943832481B463010F456
:1024F000240F311D211574E0370710F030E020E083
:1025000022523D4F3093E5062093E40677CFF6E064
:102510008F9FB001112465507E4E46E050E0CE0101
:102520000E94E632A1CF0F931F93CF93DF93EC016C
:10253000FC0101900020E9F78F0101501109C0173B
:10254000D10728F0DF91CF911F910F9108958991C4
:102550000E94E511F4CF0F931F93CF93DF938B016C
:10256000EA0190919402943061F58093E9008FEF35
:102570009091E800815095FD06C095ED9A95F1F790
:1025800000008111F5CF8091E80085FF1AC00E94FC
:10259000FB0B811111C08091E80085FD06C0809180
:1025A000E8008E778093E800F2CFF80181918F01E7
:1025B0008093F100219779F78091E8008E778093DE
:1025C000E800DF91CF911F910F91089543E050E013
:1025D000BC0184E00E94AB120895CF93DF93EC011D
:1025E00048E050E0BC0181E00E94AB1288E0FE01AF
:1025F000AAE8B2E001900D928A95E1F7DF91CF91C0
:1026000008958091220280FD0CC010921D0210924C
:102610001C0210921E021092200210921F021092B1
:102620002102579A3BB13F772BB120684FB7F894FE
:102630008CE192E0FC015191CF0168E02BB90000E0
:1026400000C057FF3BB9550F000000C000C000C0DC
:102650003BB900C06A9591F7F2E082329F0751F7CB
:102660004FBF8FE594E00197F1F700C00000089597
:102670000F931F93CF93DF93EC01109123020091EE
:1026800024028C812CE132E040E0882339F0409133
:102690002502473908F046E92CE132E0602F812F0E
:1026A0000E94E60D8C812FE132E040E0811107C0ED
:1026B00040912502473908F046E92FE132E0602FCA
:1026C000812F0E94E60D0E9401138C8190E00196FB
:1026D000817099278C83DF91CF911F910F9108957D
:1026E0000F931F93CF93DF93EC010091240210917D
:1026F0002502173908F016E92CE132E0412F602F4E
:102700008C810E94E60D8C812FE132E0412F602FF9
:1027100081580E94E60D0E9401139A818C8190FFDE
:1027200007C08F5F8C83DF91CF911F910F91089528
:102730008150F8CF9091220290FF0EC080931D022D
:1027400060931C0240931E028093200260931F023C
:10275000409321020E9401130895A3E0B0E0E3EB4F
:10276000F3E10C945C329091220290FF0DC0473946
:1027700008F046E99E012F5F3F4F0E94E60D4B8116
:1027800069818A810E949A132396E2E00C94783240
:10279000CF93DF93EC01E2E2F2E0438162818C812E
:1027A0000E94AD138C818F5F8C83DF91CF91089550
:1027B000CF93DF93EC01EC81F0E0EC5BF04F4491C0
:1027C000E2E2F2E0628181810E94AD138C818F5F31
:1027D0008C83DF91CF910895CF93C82F6FEF811134
:1027E0006CEB85E290E00E9434336FEFC11168E238
:1027F00086E290E00E9434336FEFC1116FE187E20F
:1028000090E00E943433CF910895CF93DF93C1E8D5
:10281000D0E060E0CE010E9434332196C11584E0FF
:10282000D807B9F7DF91CF9108950F931F93CF93F6
:10283000DF93142F022F8430F0F461111CC094E058
:10284000899FE0011124CF58DF4F82E090E04423BC
:1028500011F090E080E0632F8C0F9D1F0E943433B5
:1028600083E090E0112311F081E090E0602F8C0F65
:102870009D1F0E943433DF91CF911F910F910895D6
:102880001F93CF93DF93122F8430E0F46330D0F4A2
:102890004330C0F4C42FD0E0CC0FDD1F96E0699F19
:1028A000C00DD11D112492E1899FC00DD11D1124AD
:1028B000632FCE0189960E943433612FCE018A9610
:1028C0000E943433DF91CF911F910895B0E0A0E0D2
:1028D000ECE6F4E10C945132C0907A02D0907B0285
:1028E00081E090E090937B0280937A0200E910E10E
:1028F00088E4E82E80E1F82EC0E05701D0E015C052
:10290000F40125913491472D6D2F8C2F0E94401496
:1029100082E0880E911C739483E07812F1CF86E0F8
:10292000A80EB11CDF5FD33019F04501712CE8CF40
:10293000F8012591349141E060E08C2F0E9415143C
:10294000F80132962591349140E060E08C2F0E948E
:1029500015140C5F1F4FCF5F82E1E80EF11CC430ED
:1029600009F0CBCFD0927B02C0927A02CDB7DEB70E
:10297000EDE00C946D3280E00E94EC1360E088E2A0
:1029800090E00E9434330E9466140E94051481E096
:102990000E94EC13089585E290E00E9410338C3B76
:1029A00089F486E290E00E941033883259F487E27D
:1029B00090E00E94103391E08F3109F090E0892F70
:1029C0008170089580E0FCCFFF920F931F93CF9307
:1029D000DF93F42E843040F5611126C024E0829FFD
:1029E000800111240F581F4F82E090E0442311F022
:1029F00090E080E0800F911F0E941033C82FD0E03C
:102A0000DC2FCC2783E090E0FF2011F081E090E004
:102A1000800F911F0E9410339E01282BC901CDB752
:102A2000DEB7E5E00C94753290E080E0F8CF0F93CC
:102A30001F93CF93DF93843030F5633020F543301C
:102A400010F5C42FD0E0CC0FDD1F26E0629FC00D33
:102A5000D11D112432E1839FC00DD11D1124CE015F
:102A600089960E941033082F10E0102F0027CE0106
:102A70008A960E9410339801282BC901DF91CF91CB
:102A80001F910F91089590E080E0F8CF462F672FB7
:102A90002091110230911202232BC9F4703F39F4B6
:102AA000403FA9F480912A0290912B02089573303F
:102AB00038F4433060F4843050F40E9417150895C0
:102AC0007D3F41F4411103C041E0843048F090E083
:102AD00080E008957C3FD9F74111F9CF8430B8F7F1
:102AE00060E00E94E4140895CF92DF92FF920F936A
:102AF0001F93CF93DF936C01009131028091F2011B
:102B0000082BC3E0D0E010E0FC2EC8010C2E02C060
:102B1000959587950A94E2F780FD0CC02197A0F760
:102B2000F12C8F2DDF91CF911F910F91FF90DF90AE
:102B3000CF900895B6018C2F0E9446150E94860FF3
:102B4000019761F3EECFCF93DF93EC010E947415F0
:102B5000BE010E9446150E94860FDF91CF91089515
:102B6000FC0124812223C1F0808191810E94A31560
:102B700092959F70963091F058F4925F9F709230CA
:102B800058F4803F19F030F4883E30F481E0089525
:102B90009A5FF4CF843FD1F380E00895883EB0F38C
:102BA000813FD1F7F3CFA6E0B0E0E9EDF5E10C9479
:102BB0005B3249835A8349815A819923A1F02223A8
:102BC00091F0CA010E947415182F682F89819A818B
:102BD0000E94421169817A81812F0E9446152696B2
:102BE000E3E00C947732CA010E94F810182FF2CF5C
:102BF000B0E0A0E0EEEFF5E10C9456326C017B0101
:102C000064E670E088E70E9452318C01E601EC0C2A
:102C1000FD1C17FD0BC0FE01849164E670E00E946C
:102C2000BE318C012196CE15DF0599F70E94343212
:102C300081E00115110509F080E0CDB7DEB7E8E0CD
:102C40000C9472328091780290917902911103C0B4
:102C500091E089270895882369F062E070E086E4B6
:102C600090E10E94F815811103C0809178020895C7
:102C70001092780280917802EBCFCF93C0917802C6
:102C8000809179028823D1F00E944D0D605A7541E0
:102C90008F4F9F4F609374027093750280937602FA
:102CA00090937702C11108C062E070E084E490E183
:102CB0000E94F815811105C0C09178028C2FCF9128
:102CC000089581E080937802F7CFB0E0A0E0EBE6D2
:102CD000F6E10C94523249015A016B017C010E94C9
:102CE000D00D8401A4016A2D7B2D88E090E00E9424
:102CF000463394014A2D5B2DB601C70100E20E94C4
:102D0000CB32622F84E290E00E943433CDB7DEB73D
:102D1000ECE00C946E32A3E0B0E0E1E9F6E10C9453
:102D20005832082FF62E142FE22E8091220280FFB7
:102D300032C0E82FE695E695F0E0EA56FE4F908126
:102D4000909319028C7F843051F5473908F046E999
:102D50009E012F5F3F4F6F2D802F0E94E60D4B810C
:102D600069818A810E949A1300932302F0922402BF
:102D700010932502EE2079F0209122026091260224
:102D800070912702302F4F2D512F80912802909162
:102D900029020E9465162396E6E00C947432923064
:102DA00019F410912502E0CF963019F40091230216
:102DB000DBCF9930C9F6FACFE2E2F2E0438128E0B6
:102DC000421B08F440E021E0628181810E948B1661
:102DD0000895E2E2F2E0438128E0420F08F44FEF69
:102DE00021E0628181810E948B160895E2E2F2E087
:102DF000628128E0621B08F460E021E04381818168
:102E00000E948B160895E2E2F2E0628128E0620FF0
:102E100008F46FEF21E0438181810E948B160895B1
:102E2000E2E2F2E0818121E04381628188500E94E8
:102E30008B160895E2E2F2E0818121E04381628114
:102E4000885F0E948B16089580912602882319F0CE
:102E500081508093260220912202309123024091DA
:102E600024025091250260912602709127028091E0
:102E70002802909129020E946516089580912602E9
:102E8000833018F48F5F80932602209122023091C4
:102E900023024091240250912502609126027091F4
:102EA000270280912802909129020E9465160895B8
:102EB000E2E2F2E085E0808311828FEF828386E98F
:102EC00083831482758125E030E04FEF56E960E09E
:102ED000868197810E94651608959091FC0192FB6E
:102EE000222720F9281779F080FB92F99093FC01B2
:102EF0006091FB017091FC0184E090E00E945233EC
:102F000082E00E948E11089590E080E00E941E33BE
:102F1000863E9E4F19F40E94CB14089580E00895D8
:102F2000A8E0B0E0E6E9F7E10C945C3266EE7EEFF3
:102F300090E080E00E94523360E082E090E00E94E6
:102F4000343381E08093F20161E083E090E00E94FD
:102F5000343360E074E184E090E00E94523360E03A
:102F600086E090E00E9434336FEF87E090E00E94AB
:102F7000343340E050E0BA0188E090E00E944633EC
:102F800060E084E290E00E94343360E087E190E00A
:102F90000E94343360E08CE090E00E94343360E0C3
:102FA0008DE090E00E94343319821A821B821C82C9
:102FB0001D821E821F82188648E050E068E170E0A2
:102FC000CE0101960E94243340E050E0BA0180E235
:102FD00090E00E94463380E00E94EC130E94BB14F4
:102FE00040E050E0BA018FE090E00E94463340E0BC
:102FF00050E0BA0183E190E00E9446332896E2E077
:103000000C9478321F920F920FB60F9211242F93C7
:103010003F934F935F936F937F938F939F93AF9360
:10302000BF93EF93FF938091E10082FF09C08091ED
:10303000E20082FF05C08091E1008B7F8093E10078
:103040008091DA0080FF24C08091D80080FF20C0EA
:103050008091DA008E7F8093DA008091D90080FF22
:103060009DC080E189BD82E189BD09B400FEFDCF2C
:1030700081E08093940280918702811109C00E94AF
:10308000DC0B0E947D0C8091E20084608093E20062
:103090008091E10080FF17C08091E20080FF13C0A3
:1030A0008091E2008E7F8093E2008091E200806157
:1030B0008093E2008091D80080628093D80019BC90
:1030C00085E0809394028091E10084FF2BC0809181
:1030D000E20084FF27C080E189BD82E189BD89B516
:1030E000982F917080FFFBCF8091D8008F7D8093C7
:1030F000D8008091E1008F7E8093E1008091E20012
:103100008F7E8093E2008091E20081608093E200F4
:1031100080919502882309F447C084E0809394024B
:10312000809194028091E10083FF27C08091E200AA
:1031300083FF23C08091E100877F8093E10082E0DC
:1031400080939402109295028091E1008E7F80938B
:10315000E1008091E2008E7F8093E2008091E200A6
:1031600080618093E20042E060E080E00E944B0CCE
:103170008091F00088608093F000FF91EF91BF9103
:10318000AF919F918F917F916F915F914F913F91FF
:103190002F910F900FBE0F901F90189519BC109291
:1031A00094021092870274CF8091E30087FD93E030
:1031B00090939402B5CF78941F921FB61F9211245A
:1031C0008F939F93AF93BF938091830290918402DA
:1031D000A0918502B09186020196A11DB11D809338
:1031E000830290938402A0938502B0938602BF91DC
:1031F000AF919F918F911F901FBE1F9018959C01BA
:103200004FB7F8948091830290918402A091850237
:10321000B09186024FBF821B930B08952FB7F8948D
:103220008091830290918402A0918502B0918602E0
:103230002FBF0895AEE0B0E0E0E2F9E10C944D322A
:1032400080917902882309F499C01091DB028EEDF8
:1032500092E09093E5068093E40686E0E3E1F1E0F6
:10326000DE01179601900D928A95E1F786E0E9E17B
:10327000F1E0DE01119601900D928A95E1F78091BF
:103280002D0290912E020E94FF18823A9105E8F1DA
:103290000E940E19B0E0A0E080932D0290932E02C0
:1032A000A0932F02B093300280912C0290E00196FF
:1032B00063E070E00E94383280932C02FC01EE0F34
:1032C000FF1FCC24C394D12CCC0EDD1EEC0DFD1DB4
:1032D0006681778140815181413024E0520710F0AE
:1032E00040E054E02091DC023091DD02AEEDB2E02E
:1032F00090E080E0EE24E394F12C4817590709F0A0
:1033000041C03093DD022093DC02812F90E0880FD2
:10331000991F8C519D4F9093E5068093E406809110
:103320003102882309F45DC090E09C013595279512
:1033300020FF43C087E291E00E9493128091DC025B
:103340009091DD02892B09F04FC08091780288238B
:10335000A9F00E944D0D0091740210917502209108
:10336000760230917702601B710B820B930B6F3FDB
:103370007F4F8F4F9F4710F40E9422162E96E1E157
:103380000C946932FB01E80FF91FE491FC91EF17EF
:1033900089F0EC93FC01689415F8F695E79516947E
:1033A000E1F7670102C0CC0CDD1CEA95E2F7F601FB
:1033B0002C293F2B01961196A0CF9C01359527957E
:1033C0003595279520FF03C08FE291E0B5CF53E0FC
:1033D000959587955A95E1F780FF03C087E391E0C3
:1033E000ABCF8FE391E0A8CF80917902882309F4D5
:1033F000ACCF809173028111A8CF0E943D1620911D
:10340000DC023091DD022115310509F49ECF80E008
:1034100041E050E0082F10E07A01082E02C0EE0CC7
:10342000FF1C0A94E2F7B70162237323672B11F4A0
:103430008F5FF0CF9091720290FF9CC0880F880F31
:10344000880F80930D0110921001895F80930E0107
:1034500087E08093110124E630E047E050E06BE024
:1034600071E088E70E94EC31892B09F06ECFA8014A
:1034700026E0440F551F2A95E1F78091720280FFE4
:103480008AC0E2E3F2E080E4DF011D928A95E9F769
:10349000EEEAF1E0FE87ED8706EA11E086EBA82E62
:1034A00081E0B82E97E0392E44244394AD85BE8543
:1034B0008D91BE87AD87F80121918F01240F352FA3
:1034C000311D22523D4FE82FF0E0EE5CFD4F90E0C1
:1034D00080E0632C681A742C082E01C0770C0A94C3
:1034E000EAF76901812CD6019D906D019720662D28
:1034F00068196770562E062E000C770BB92D01C087
:10350000BB0F5A94EAF77195619571096770772737
:1035100001C096946A95EAF79B2A6081562E592835
:103520005082839468E08612DECF0196319688300F
:10353000910579F68D859E85A816B90609F0B6CF56
:1035400004E610E020E430E042E352E060E488E783
:103550000E940D32892B09F0F8CEE094F09480910E
:10356000DC029091DD02E822F922F092DD02E09285
:10357000DC02EBCE8295880F880F807480930D015A
:1035800098013695279520931001815C80930E0158
:103590002093110160CF42525D4F04E610E020E419
:1035A00030E0D4CF609122026695669570E041E0EC
:1035B00050E08AE091E00E94EF32892B19F481E01B
:1035C00080931A020E940E199093140280931302A2
:1035D00008959091220290FF35C09370811133C0FD
:1035E000946090932202662391F020912202309100
:1035F000230240912402509125026091260270918D
:10360000270280912802909129020E9465166091FC
:1036100022026695669570E041E050E08AE091E014
:103620000E94EF32892BB9F010921A0281E0809348
:10363000160220E04091250260912402809123022D
:103640000E948B160895803110F09C63CACF880FBA
:10365000880F982BC6CF0E94D21AE8CF8091220201
:1036600086958695815009F48FE061E00E94E91A01
:10367000089580912202869586958F5F803108F0AB
:1036800081E061E00E94E91A08959091220290FF82
:1036900009C096959695981728F0961718F40E94E9
:1036A000391B089561E00E94E91A0895A3E0B0E093
:1036B000ECE5FBE10C94553219821A821B8280E8FA
:1036C000C82E81E0D82E10E000E0EE24E394F12C27
:1036D000F60181916F018F3F09F446C0F894E82FFD
:1036E000E295EF70F0E021A18F70A70102C0440FB6
:1036F000551F8A95E2F7CA01922F982B91A392A1A8
:103700008095892382A3789400C0E3E8F1E0B12C8E
:1037100031E021912F3F09F450C0A22FA295AF7044
:10372000B0E090968C9190E02F7002C095958795AF
:103730002A95E2F780FD41C0832FB82A330F51E06C
:10374000E638F50731F7F601319780818F3F11F0A8
:103750000E947E0E80EA8A95F1F7E1E0F0E0EC0F3E
:10376000FD1FE00FF11FB0820F5F1F4F03301105E7
:1037700009F0AECF43E050E0BE016F5F7F4F88EFAE
:1037800091E00E94FC32892BE1F089819A81AB8122
:103790008093F8019093F901A093FA0181E080935E
:1037A000F7010E940E199093F6018093F50110E045
:1037B000812F2396E9E00C94713280E0BECF10E0B7
:1037C00022C01091F701112391F38091F50190919E
:1037D000F6010E94FF18059750F343E050E068EFB0
:1037E00071E08EE092E00E94FC32892B41F38091DF
:1037F000F8019091F901A091FA0180930E02909343
:103800000F02A09310021092F701D2CF9091F10114
:10381000292F282361F0809589238093F101882343
:1038200039F00E940E199093F0018093EF010895F2
:1038300090E080E0F8CFCF93C091EE018091E50158
:10384000C82B8091F1018823F9F00E940E19209174
:10385000EF013091F001821B930B8838934110F0F7
:103860000E94A4108091F101C82B20E08AEC91E025
:10387000FC013191CF0131112F5FF1E0803D9F07B5
:10388000B9F721110E94A410C093C80148E050E08C
:1038900066EE71E088EC91E00E94FC32892BA9F081
:1038A00088E0E8ECF1E0A6EEB1E001900D928A9597
:1038B000E1F7E0917E02F0917F02309731F00280D3
:1038C000F381E02D88EC91E00995CF910895109255
:1038D000EE01EAECF1E086E0DF011D928A95E9F75E
:1038E00090E080E00E94980D90E080E00E94730DCF
:1038F0001092E5010E941B1C0895AAE2B0E0E3E8E3
:10390000FCE10C945B3286E992E02091F100DC014D
:103910002D93CD01B2E08E399B07B9F780919702C4
:10392000833009F472C0B8F4813009F449C08230A0
:1039300009F4B3C08091E80083FF96C2809196029B
:10394000909197029A3008F08FC2E92FF0E0E65983
:10395000FC4C0C94A3328A3009F48EC08B3009F4ED
:1039600071C0893039F780919602813219F78091C0
:103970009A0290919B02009711F00297D9F68091DC
:10398000E800877F8093E8008091E80082FF38C0DC
:103990009091F3008091F200029731F48091F10050
:1039A000813011F0863021F48091F10080938902FA
:1039B0008091E8008B778093E8000E942C0CBACFAE
:1039C00080919602813A09F0B5CF8091E800877F17
:1039D0008093E80080919A0290919B02892B61F478
:1039E00068E08AE892E070E00E94D80C8091E800DC
:1039F0008B778093E8009ECF60E090E080E0F3CF8B
:103A0000809194028111C0CF95CF80919602813A26
:103A100009F090CF80919A0290919B02892B09F036
:103A200089CF8091E800877F8093E8008091E8004B
:103A300080FFFCCF809112018093F1008091E8001B
:103A40008E77B9CF80919602813209F073CF809141
:103A50009A0290919B02892B09F06CCF8091E8002B
:103A6000877F8093E8000E942C0C809198028093BD
:103A700012010E94671C5ECF80919602813209F08C
:103A800059CF8091E800877F8093E8000E942C0C3A
:103A900080919902809388024DCF80919602813A5D
:103AA00009F048CF8091E800877F8093E8008091FB
:103AB000E80080FFFCCF80918802BECF803899F06B
:103AC000823809F0D1C180919A028F70873008F056
:103AD000CBC18093E9008091EB0085FB882780F9BA
:103AE0001092E90006C08091920290919302911188
:103AF00082609091E800977F9093E8008093F100B6
:103B00001092F1008091E8008E77AAC1882309F411
:103B100098C1823009F0A8C18091980281119BC19F
:103B200080919A028F702FEF280F263008F09CC1E9
:103B30008093E9002091EB0020FF8DC1933031F498
:103B40008091EB0080628093EB0085C19091EB0047
:103B500090619093EB0021E030E001C0220F8A9544
:103B6000EAF72093EA001092EA008091EB00886067
:103B7000EACF811179C1109198021F778091E300FB
:103B80008078812B8093E3008091E800877F809389
:103B9000E8000E942C0C8091E80080FFFCCF80910F
:103BA000E30080688093E30082E0111183E080935A
:103BB00094025AC18058823008F056C12091980270
:103BC000309199022C3DE3E03E07A1F583E08A8322
:103BD0008AE289834FB7F894DE01139620E03EE035
:103BE00051E2E32FF0E050935700E49120FF03C02F
:103BF000E295EF703F5FEF708E2F90E0EA30C0F0FB
:103C0000C7968D939D932F5F243159F74FBF8091B5
:103C1000E800877F8093E8006AE270E0CE010196B9
:103C20000E94D80C8091E8008B778093E8001CC13B
:103C3000C096E7CF80919A0290919B02432F55271F
:103C40004330510509F44AC078F54130510509F473
:103C500085C08BE590E0E0EAF0E14230510509F0E3
:103C600003C12091E800277F2093E80020919C0267
:103C700030919D028217930708F49C0140E02115C2
:103C8000310509F070C041116EC08091E80082FDDD
:103C9000C9CF80919402882329F2853019F280914E
:103CA000E80083FFF2CFBECF4132510509F447C08F
:103CB0004232510509F0D8C08330910508F0D4C0D4
:103CC000FC01EE0FFF1FE754FE4F0190F081E02D45
:103CD0008A549E4FDC018C9190E01DC03327213027
:103CE0003105E9F02115310579F022303105F9F07F
:103CF0002330310509F0B8C0EDE0F1E1E4918E2FF9
:103D000090E0EDE0F1E107C0E7E4F1E1E4918E2F0E
:103D100090E0E7E4F1E1009709F4A6C0A2CFE7E361
:103D2000F1E1E4918E2F90E0E7E3F1E1F4CFEBE2F3
:103D3000F1E1E4918E2F90E0EBE2F1E1ECCF833002
:103D4000910508F091C0880F991FFC01E154FE4FC6
:103D50000190F081E02D89E090E083CF82E190E056
:103D6000EBEFF0E17ECF80919402882309F45ACFE3
:103D7000853009F457CF8091E80083FD53CF8091BF
:103D8000E80082FD82CF8091E80080FF78CF90919B
:103D9000F3008091F2002115310519F0883091056A
:103DA00050F041E0089709F040E08091E8008E77FC
:103DB0008093E80064CF44914093F1003196215004
:103DC00031090196E8CF803809F04EC08091E800B3
:103DD000877F8093E800809195028093F10092CED6
:103DE000811142C0109198021230F0F58091E800E4
:103DF000877F8093E800109395020E942C0C11237A
:103E000011F084E005C08091E30087FDFACF81E0E6
:103E10008093940242E061EC81E00E944B0C42E20C
:103E200061EC84E00E944B0C42E261EC82E00E9473
:103E30004B0C42E260EC83E00E944B0C80919402B8
:103E400013C080919802813079F481E0933009F0B9
:103E500080E0809393021092E9008091E800877FD0
:103E60008093E8000E942C0C8091E80083FF0AC038
:103E70008091E800877F8093E8008091EB0080626A
:103E80008093EB00AA96E3E00C9477321F920F9296
:103E90000FB60F9211242F933F934F935F936F931D
:103EA0007F938F939F93AF93BF93CF93DF93EF93C2
:103EB000FF93D091E900DF708091EC00C82FC170B2
:103EC00080FDC0E81092E9008091F000877F809328
:103ED000F00078940E947D1C1092E9008091F0001F
:103EE00088608093F000CD2BCF70C093E900FF91E4
:103EF000EF91DF91CF91BF91AF919F918F917F9182
:103F00006F915F914F913F912F910F900FBE0F9046
:103F10001F9018950E94671C2FEF84E39CE02150AE
:103F200080409040E1F700C0000088E19AE00FB6C1
:103F3000F894A895809360000FBE90936000FFCF27
:103F4000882341F080959091E50189238093E501D4
:103F50000E941B1C0895882339F09091E501982B4D
:103F60009093E5010E941B1C0895882321F00E9474
:103F7000AF100E941B1C0895882339F09091EE0128
:103F8000982B9093EE010E941B1C0895882391F1B9
:103F90009CEF980F913A80F4EAECF1E020ED31E0EB
:103FA0009191891303C0DF0111971C922E173F07CF
:103FB000B9F70E941B1C089590E2980F983050F4B6
:103FC000877091E001C0990F8A95EAF7892F0E94C6
:103FD000AF10EFCF9BE5980F933028F490E080E08E
:103FE0000E94980D0895885A8B3120F490E080E06B
:103FF0000E94730D0895CF93C82F8823B1F08CEFE2
:104000008C0F813A00F5EAECF1E080ED91E0DF0100
:104010002D91C21761F08A179B07D1F76C2F88EC9E
:1040200091E00E94590D0E941B1CCF91089521918F
:10403000C21303C0DF0111971C928E179F07B9F7B7
:104040000E941B1CEBCF80E28C0F883068F4C77095
:1040500021E030E001C0220FCA95EAF78091EE011D
:10406000822B8093EE01DFCFEBE5EC0FE33040F4E1
:10407000F0E0E95BFE4F808190E00E94980DD5CF83
:10408000C85ACB3190F6EC2FF0E0EE0FFF1FE65B45
:10409000FE4F808191810E94730DC7CF1F93CF93F4
:1040A000DF93182FD0E0C0E0893311F4C0E5D0E0F1
:1040B000812F0E94FB1F209739F4812F0E94C61F79
:1040C000DF91CF911F9108958FE99FE00197F1F75C
:1040D00000C000002197EFCF0F931F93CF93DF9382
:1040E000C62FD42F022FFC0185818823A9F060936D
:1040F000DA020E940E199093D9028093D802C770F9
:1041000081E001C0880FCA95EAF70E94BC1FDF91C9
:10411000CF911F910F9108958091DA02681332C0F8
:104120008091D8029091D9020E94FF18883C910595
:1041300048F510E21D0FCD17B9F080E28C0F8830E2
:1041400040F4C77081E001C0880FCA95EAF70E9469
:10415000B51F183048F481E09D2F977001C0880F7B
:104160009A95EAF70E94BC1F802F0E944E201830BB
:1041700070F6D77081E001C0880FDA95EAF70E94E7
:10418000B51FC5CFC77081E001C0880FCA95EAF797
:10419000F6CFB0E0A0E0EFECF0E20C945432EC018A
:1041A0008AE0A82E2881222309F48FC02130C9F586
:1041B00099818A81913021F422960E944E2005C077
:1041C000923029F422960E94FB1F2196EBCF933068
:1041D00021F422960E94C61FF8CF943011F0219648
:1041E000F4CF229630E020E0AE014F5F5F4F805366
:1041F000990B8A30910550F02150310930F38FE945
:104200009FE00197F1F700C00000F6CFA29EB00139
:10421000A39E700D11249C01260F371F8981EA018E
:10422000E3CFE22FF0E0E558FE4EB490822F869562
:104230008695869590E0FC01E559FE4EE490277046
:10424000F12C022E02C0F594E7940A94E2F731E0D3
:10425000E322FF24FC01E55AFE4EC490D12C022E2D
:1042600002C0D594C7940A94E2F731E0C322DD245A
:10427000FC01E55BFE4E049110E002C01595079528
:104280002A95E2F701701127E114F10419F081EE8B
:104290000E94FB1FC114D10419F086EE0E94FB1F7F
:1042A0008B2D0E944E20C114D10419F086EE0E947D
:1042B000C61FE114F10419F081EE0E94C61F01151A
:1042C000110509F482CF8CE278CFCDB7DEB7EAE0F2
:1042D0000C9470329091FC0192FF10C098E0899F7D
:1042E00090011124622B6093E4010E94A5110E94A9
:1042F0000E199093E3018093E20108950E94A511A5
:104300000895ABE1B0E0E7E8F1E20C945A324E8B4D
:104310005F8B688F798F8A8F9B8F092F91111092F5
:10432000E5011D8A86E0FE017696DE011F9601906A
:104330000D928A95E1F71A8D8091FC0182FF1CC0D5
:104340000E940E192091E2013091E301821B930B30
:104350008838934120F08091E40182FF7FC00E9461
:104360000E192091EF013091F001821B930B8838D8
:10437000934110F00E94A410112349F021E04F85D1
:10438000588969897A89812F902F0E94D3151B8BB8
:104390000C8B87E0FE013F96DE01189601900D928E
:1043A0008A95E1F7CE0108960E94502881110CC031
:1043B00087E0FE013896DE01119601900D928A95F4
:1043C000E1F78C8581110BC017E08091D7029091A5
:1043D0009E02891331C06B96E4E00C9476322091F2
:1043E0009E0230E0C9010196877099274091D7025B
:1043F0004817190699F097E0929FD001939FB00D4E
:104400001124A156BD4FFE01319601900D929A954F
:10441000E1F780939E020E94C710D6CF0E94671CCE
:1044200010929E021092D70287E0EAEDF1E0DF01E0
:104430001D928A95E9F7C8CF819FC001112481564A
:104440009D4F0E945028882331F28091D70290E03E
:104450000196877099278093D702B7CF82E00E9498
:104460008E117DCFA6E0B0E0E8E3F2E20C945A3280
:104470008C0190932B0280932A02011580E2180789
:10448000C0F4802F0E94C61FC8010E94B411980179
:10449000205E31092830310518F00115110531F47D
:1044A0000E94B51F2696E4E00C9476320E94A01F6D
:1044B000F9CF80EF89838A830E940E198160682F6B
:1044C0009C838B8349815A817C8181E090E00E94AA
:1044D0008121E8CFA6E0B0E0E0E7F2E20C945A32A6
:1044E0008C0190932B0280932A02011580E2180719
:1044F000C0F4C8010E94B4119801205E310928302F
:10450000310518F00115110549F40E94BC1F802FD8
:104510000E94FB1F2696E4E00C9476320E94AB1FAB
:10452000F6CF80EF89838A830E940E198160682FFD
:104530009C838B8349815A817C8181E091E00E9438
:104540008121E8CFA4E0B0E0E8EAF2E20C94523234
:104550007C01FC018481882309F4DFC021E04081D3
:1045600051816281738195810E94D3158C01F7017D
:104570008581882309F4B1C0C80197578038910517
:1045800008F013C5D02EFFE0F01708F4B7C08FEF86
:1045900093E00E9410338111B1C001E810E0D11006
:1045A00036C019821A821B821C8299249A9468014F
:1045B0003FEFC31AD30AC8010E94103389831A82BD
:1045C000882309F49BC0813009F081C0580142E082
:1045D000A40EB11CC6010E941033C82E8A83882302
:1045E00009F48CC0C5010E941033D82E8FEF8C0DBA
:1045F0008330D8F4580153E0A50EB11CDB82DD20D6
:1046000021F0CE0101960E94C9208501D0CF01156D
:1046100024E0120709F472C0C8010E94103381110E
:1046200001C0DA940F5F1F4FBACF8BEF8C0D833030
:1046300040F5C8010396DB825C01DD2031F35801AF
:10464000E4E0AE0EB11C0E9410338C838823E9F2A3
:104650000B811C810130FFEF1F0710F0102F002786
:1046600026E0C21651F037E0C31619F0C8010E94C7
:104670006A22C8010E943222C8CFC8010E946A2261
:10468000C4CF44E0C412C1CF580154E0A50EB11C00
:10469000C80103960E941033DD2081F1882371F157
:1046A0008150990B989E9001999E300D1124ED2D0B
:1046B000E150FF0BCF01820F931F019708F4A5CFA4
:1046C000EFE9FFE03197F1F700C00000F6CFCE012F
:1046D00001960E94C920560198CFF801E851FC4785
:1046E000E730F10508F049C4EC58FC4C0C94A332B7
:1046F00026E241EE61EEC7010E946C208091E40148
:10470000877059F0F7018581882339F08091FC0189
:1047100082FF03C082E00E948E112496ECE00C948C
:104720006E3227E245EE65EEE6CF26E241EE60EE20
:10473000E2CF27E245EE64EEDECF26E241EE62EE06
:10474000DACF27E245EE66EED6CF28E241E0EBCFA6
:104750008091FB0181608093FB0195C08091FC01F9
:1047600088608093FC018FC08091FB018260F3CF51
:104770008091FB018460EFCF8091FB018860EBCFDB
:104780008091FC018160EDCF8091FC018260E9CFD6
:104790008091FB018061DFCF8091FB018062DBCFE4
:1047A0008091FB018064D7CF0E94671C8091FB0140
:1047B0008068D1CF8091FB018C60CDCF8091FC01CE
:1047C0008360CFCF8091FB018E7FC5CF8091FC01AC
:1047D000877FC7CF8091FB018D7FBDCF8091FB018B
:1047E0008B7FB9CF8091FB01877FB5CF8091FC0192
:1047F0008E7FB7CF8091FC018D7FB3CF8091FB017D
:104800008F7EA9CF8091FB018F7DA5CF8091FB0189
:104810008F7BA1CF0E94671C8091FB018F779BCF7C
:104820008091FB01837F97CF8091FC018C7F99CF92
:104830008091FB0182FB992790F921E0922790FB60
:1048400082F990FB83F987CF8091FC01982F909596
:1048500091708E7F892B90FB81F983CF9091FB0122
:10486000892F8F7B96FF806476CF0E94671C909182
:10487000FB01892F97FB87F980586DCF61E08EE0AF
:1048800090E00E9434336091FB017091FC0184E060
:1048900090E00E9452330E94671C30CF60E0EFCF5F
:1048A0009091FB01892F8F7E94FF806154CF90916E
:1048B000FB01892F8E7F90FF81604DCF9091FC018D
:1048C000892F877F93FF88604CCF85E360C30737CC
:1048D0002CE7120709F022C381E00E94A51143E0F2
:1048E00062E081E00E94611109CF8091EE01827245
:1048F000F801E052F847E531F10508F06CC0E558E1
:10490000FC4C0C94A3328091220280FF19C0282F06
:104910002E7F209322023091230240912402509155
:1049200025026091260270912702809128029091C1
:1049300029020E94651610921A020E940113DECE0F
:1049400081608093220261E0869586950E94E91A33
:10495000D5CE4EE25BE169E37BE10E94CA0DCECE8B
:1049600049E35BE16EE27BE1F8CF40E157E16AE1C8
:1049700077E1F3CF4AE157E160E177E1EECF46EF2F
:1049800056E163E077E1E9CF43E057E166EF76E196
:10499000E4CF4CED56E169EE76E1DFCF49EE56E12A
:1049A0006CED76E1DACF44E257E16EE377E1D5CF03
:1049B0004EE357E164E277E1D0CF61E081E0C6CF1A
:1049C00065E082E00E94451B99CE68E086E0FACF60
:1049D0006EE089E0F7CF07373CE7130709F456C0CC
:1049E00008374CE7140709F455C0F70185810081A9
:1049F0001181882309F47EC0C8010E947415D82E45
:104A0000682FC8010E944211B8018D2D0E944615E1
:104A10000E94860F8C01882EF701C580B680B29463
:104A20003FE0B3228091E401877009F1AC2CCC20E7
:104A3000F9F0812F807F803469F080E2800F883028
:104A4000B0F0812F807E803229F4F1E0F01778F405
:104A5000BB2069F08091FC0182FF09C082E00E94C6
:104A60008E118091E4018770AA24A3948111A12C56
:104A7000912E92942FE092222BE0291508F49FC0EA
:104A8000E92DF0E0E057FC4C0C94A33281E00E9449
:104A9000811125CF82E0FBCF0B35FCE71F0741F1E9
:104AA0000C352CE71207D1F00A351C4709F09DCFD1
:104AB00081E01BC00E94671C4FEF54E38CE0415023
:104AC00050408040E1F700C000000E943C0D6FEFB5
:104AD0007FEF90E080E00E94523336C28091FC016B
:104AE00082FB882780F991E089270E946D177DCF8E
:104AF00080E0FBCFC8010E94F810D82E85CF312F5F
:104B00003F70D32E107F19F0D29490EFD922CC2091
:104B1000B9F0DD2069F080E2800F883010F081105C
:104B200009C08091EE01D82AD092EE010E941B1C90
:104B3000802F43C08091E501D82AD092E501F6CFBD
:104B4000802F0E94C61FDD20D1F1005E083010F0DA
:104B5000811004C08D2D0E94AF1006C0D0948091AA
:104B6000E501D822D092E5010E941B1C28C0412FEC
:104B70004F70D42E107F103219F0D29480EFD822CB
:104B8000882059F051E0851609F48EC0CC2009F434
:104B90009AC0BB2009F447C0CBCF8091FC0182FDB5
:104BA0003EC0CC20B1F1DD2039F08091EE01D82A51
:104BB000D092EE010E941B1C80E00E94FB1F492D39
:104BC0004850550B4430510510F40E94BD0DAA20E9
:104BD000A9F08091E40180FD11C0F701158286954E
:104BE000869586950E94A511C7010E94A2228091F8
:104BF000E4018695869586950E94811120E0F70153
:104C00004081518162817381848195810E94D31595
:104C100084CD80E00E94C61FDD2089F29BCFCC208E
:104C200071F1B11004C08D2D0E94BC1FC8CF81E06E
:104C3000B81211C01091F1018D2D8123D81609F4FD
:104C4000BECF0E940E199093F0018093EF01D12AFC
:104C5000D092F101B4CF95E0B912B1CF8D2D0E9461
:104C6000BC1F8D2D0E94061C8091E1019D2D982373
:104C7000D91609F4A4CFD82AD092E101A0CFB1105F
:104C80000AC08D2D0E94B51F8D2D0E94061C8D2DF2
:104C90000E94BD1094CFE1E0BE1291CF8091EE0151
:104CA0008D2109F48CCFEDCFCC2029F0F5E0FB1558
:104CB00008F485CFB8CF24E02B1508F480CF8D2DD4
:104CC0000E94B51F7CCFBB20D1F339E3831209C00A
:104CD0004FEF57EE83E0415050408040E1F700C075
:104CE0000000802F0E94C61F6ACF812F869586956F
:104CF000837061F0813009F062CFC8019370C110F8
:104D000002C080E090E00E94730D59CFC8019370FB
:104D1000C11002C080E090E00E94980D50CF812F1A
:104D2000837089F5C1104BCF402F4295469547704F
:104D3000440F440F802F8F70042E01C0880F0A94F7
:104D4000EAF7202F207104FF07C02FE030E001C0F8
:104D5000220F4A95EAF72095169516951370123092
:104D600069F050F43091F201113029F0822B832345
:104D70000E94B11124CF832B822BFACF282B809154
:104D8000F2018227F5CF8695CC2011F0812F81701A
:104D9000882309F414CF402F429546954770440F5D
:104DA000440F802F8F70042E01C0880F0A94EAF7F9
:104DB000202F207104FF07C02FE030E001C0220F38
:104DC0004A95EAF72095169516951370123069F0FA
:104DD00050F430913102113029F0822B83230E944C
:104DE0005E11EDCE832B822BFACF282B80913102DE
:104DF0008227F5CF1F70CC2029F0812F0E94A511AA
:104E0000802F12CF802F0E94B51F812F0E94811109
:104E1000D6CE802F92EF8916B1F1981570F0E0EFA1
:104E20008E16D1F0F1EF8F1691F0CC2009F466C008
:104E3000B1107ECE812F8F712AC023EF821651F1DF
:104E400034EF8312F2CF8091FC0182FD2FC0812FBD
:104E50008F71CC20D9F21BC0CC2081F044E04B15DF
:104E600008F4ADCE1F7181E090E0012E01C0880FE3
:104E70000A94EAF7909131028927B1CF55E05B158A
:104E800008F49DCEEFCF812F8F71C110BFCF0E944C
:104E9000A51195CE80E0CC2009F4A1CF1F7181E04F
:104EA000012E01C0880F0A94EAF799CFCC20C9F0EF
:104EB0008091E4018770843041F40E94B610812F04
:104EC0008F710E948111A12C7ACE84E08B15D8F3CA
:104ED0001F71812F0E94A51163E0812F0E946A211A
:104EE000F2CF94E09B1530F40E94B61064E0812F5D
:104EF0008F71F4CF81E00E948E11E5CFBB2059F075
:104F0000893309F0EECEEFEFF7EE23E0E150F04009
:104F10002040E1F7E4CE812F8F7178CF82E008370F
:104F2000FCE71F0709F4D9CC03305CE7150709F447
:104F3000CECD08F0B1CD01159CE7190709F4BACD23
:104F400001301C4709F051CD0E948A1F06312CE721
:104F5000120709F0BCCC8091EE018A7A91E009F445
:104F600090E09093D00169E2811165E388EC91E0D3
:104F70000E94590D0E941B1CC1CB06313CE7130750
:104F800009F0B3CC8091D00181119FCC89E2EAEC89
:104F9000F1E020ED31E09191891303C0DF01119719
:104FA0001C922E173F07B9F7E5CFF801E851FC47EF
:104FB000E730F10508F498CB1092DA02C801905757
:104FC000839720F684E090E00E941E339093FC01CA
:104FD0008093FB01F801E150F047E232F10508F05F
:104FE000B7CBE456FC4C0C94A332CF93DF93809163
:104FF000E001807F09F04DC08091DF01882309F432
:1050000048C0E091D70250919E02C091DB01D0913F
:10501000DA016091DC017091DD0147E05E17C9F1B2
:105020008E2F90E0E49FF0011124E156FD4F248182
:10503000222391F1489FF001499FF00D1124DF01D7
:10504000A156BD4F11962C9111972C1325C02C9170
:105050002D1322C015962C91159721111DC0129663
:105060002D913C91261B370B283C3105A8F48091EB
:10507000E0018F7080618093E001EB55FD4F8081EE
:105080008F70806180838AED91E00E94A2220E944D
:10509000C710DF91CF910895FC013196E770BECF24
:1050A000A4E1B0E0E6E5F8E20C9452328C0186E02F
:1050B000F801DE011F9601900D928A95E1F7F80143
:1050C0008481E5809AEDA92E91E0B92E9091DE01C0
:1050D000911128C0882319F1EE20F1F0C8010E9437
:1050E000B015F82E8823C1F087E0F801D5010190B2
:1050F0000D928A95E1F78091DE01813031F4809143
:10510000DA019091DB010E94A3150E94F5278F2DF3
:105110006496ECE00C946E32C8010E94A222FF2437
:10512000F394F5CFD080C18082809380F090DF012E
:105130002091DC013091DD01A401421B530BFF20C3
:1051400009F4D9C0483C510508F092C08823F9F20F
:105150009091DB018091E001282F207F09F056C05B
:10516000C91214C09091DA01D91210C0E11048C0E0
:105170008F7080618093E0018AED91E00E94A2220D
:105180008091E001F8018683F12CC1CFE11038C095
:105190006C2D8D2D0E94BD0B6C2D8D2D0E94BD0B95
:1051A000E82E8111F1CFDF86C88A8F8598890E9409
:1051B000A315292F22952F70243058F49F70223088
:1051C00088F0992399F0F8019681907F79F4FE2C6C
:1051D0009ECF2A5F2F70223068F0C8010E94A22261
:1051E000EF2CF5CF992311F0882389F3805E883066
:1051F00070F3F3CF803F58F3815F833070F7E7CFD0
:105200008091E00181608093E001BECFC91207C0A8
:105210009091DA01D91203C0EE2009F48DC0C801C3
:105220000E94B015882309F477CFEE2009F474CFDB
:105230008091E001803288F02091DA013091DB0129
:10524000398728879B868A869091DE019C871D86F8
:105250008E87CE0108960E94A22287E0F801AAED6F
:10526000B1E001900D928A95E1F70E94F52757CFA2
:105270009091E001292F207F51F48AED91E00E9466
:10528000A22287E0F50111928A95E9F77DCF882364
:1052900009F43DCF8091DB018C1110C08091DA01BF
:1052A000D8120CC0E1100AC09683C8010E94A22245
:1052B00087E0F50111928A95E9F729CFC8010E948C
:1052C000B015882309F428CFEE2009F425CF80916A
:1052D000E001803210F22091DA013091DB013A8353
:1052E00029839C828B829091DE019D831E828F8315
:1052F000CE010196B0CF483C5105D0F6882309F481
:105300000ECFFE2CEE2009F407CF8091DB018C112B
:1053100020C08091DA01D8121CC08091E00180FD8C
:105320000FC0982F907F61F08683903F31F0982FC7
:10533000907F905F8F70892B8683C8010E94A22284
:1053400087E0F801AAEDB1E001900D928A95E1F7AE
:10535000DECEC8010E94B01581117FCF8091E0019F
:1053600081608093E001C8010E94A222D0CEA6E015
:10537000B0E0EDEBF9E20C945A320E940E198C0168
:105380008091F3019091F4018017910781F01982C7
:105390001A820E940E19682F49815A81792F80E064
:1053A00090E00E9481211093F4010093F30126966E
:1053B000E4E00C9476321F921FB61F9211248F9353
:1053C0009F93AF93BF9380918202811113C080910C
:1053D000830290918402A0918502B0918602419649
:1053E000A11DB11D8093830290938402A093850236
:1053F000B0938602BF91AF919F918F911F901FBE76
:105400001F901895CDB7DEB7C654D1090FB6F894E2
:10541000DEBF0FBECDBF85B7806885BF85B780680A
:1054200085BF84B7877F84BF0FB6F894A895809115
:105430006000886180936000109260000FBE80E879
:1054400090E00FB6F89480936100909361000FBED6
:105450008CE79EE09093C7018093C6010E94DC0B0D
:105460000E947D0C8091E20084608093E200789439
:10547000809194028823A1F01091E9001F7090910F
:10548000EC00892F817090FD80E8182B1092E900C4
:105490008091E80083FD0E947D1C1F701093E9003D
:1054A00082E084BD93E095BD9AEF97BD80936E0036
:1054B0000E94CB14811102C00E94BB1481E0809332
:1054C000070285988D9A84988C9A8FE891E00197CD
:1054D000F1F700C000002091070248E052E0FA0115
:1054E0008E2F841B821708F44DC086E30E947E0E27
:1054F00082E30E947E0E83E30E947E0E85E30E947B
:105500007E0E84E30E947E0E86EC0E947E0E83E077
:10551000EEE0F2E0DF01282F1D922A95E9F7E8EF8F
:10552000F1E0DF011D928A95E9F70E94841781114D
:1055300002C00E94901782E090E00E941033809396
:10554000000284E090E00E941E339093FC0180935F
:10555000FB010E94561BBFEFE6E7F1E0B150E040CF
:10556000F040E1F700C000000E94561B80910E023F
:1055700080FF14C06FEF7FEF90E080E00E94523315
:105580000E943C0D8FB185FB882780F97C9904C06F
:1055900090E0892B8193A4CF92E0FBCF83E090E051
:1055A0000E9410330E94B1111092720280E8809321
:1055B000DB020E944C316BE070E08BE59DE00E94C5
:1055C000F8158823E9F18091720265E070E081FDB1
:1055D00054C186E59DE00E94F815882389F16DE0AD
:1055E00070E084E49DE00E94F815882349F10E9450
:1055F0004D0D605A75418F4F9F4F609374027093A9
:1056000075028093760290937702EEEDF2E080E0EF
:1056100094E0DF019C011D9221503040E1F7F093AE
:10562000E506E093E4068FEF9FEF9093DD02809311
:10563000DC0281E0809379028093780210927302F9
:105640008091FD01811174C00E948417811104C0F2
:105650000E9490170E94581788E090E00E9418332B
:105660004B015C0184E290E00E941033282F30E06F
:1056700040E050E060E070E080E090E000E20E94F6
:10568000B032282939294A295B29209322023093F4
:1056900023024093240250932502609326027093C4
:1056A000270280932802909329022C7F89F50E947B
:1056B000581788E090E00E9418336B017C0184E267
:1056C00090E00E941033282F30E040E050E060E08E
:1056D00070E080E090E00E94B032B22FA32FF42F50
:1056E000E52F5B0197018601BC29A12BFE29E32B45
:1056F000B0932202A0932302F0932402E0932502A8
:1057000060932602B0922702809328029093290288
:105710000E94D00D10921A028091220280FF05C0D3
:1057200060E0869586950E94E91A81E08093FD01EC
:1057300080E091E090937F0280937E02E8E12E2E3C
:10574000312C80919402853009F510E401E060E18C
:10575000F62E72E1E72E80919402853009F490C014
:105760000E94671C0E94BD0D1092FF018091FE01F6
:10577000882351F08091220281608093220260E0B0
:10578000869586950E94E91A0E94D21A0E94561B9D
:105790009091010280910E029813D4C090910F0253
:1057A000809102029813CEC0909103028091100262
:1057B0009813C8C00E94B729F12C80911A0288233F
:1057C000D9F180911902E0912202E695E695E81B55
:1057D000E0931502823009F009C1F0E0E459F24F7C
:1057E000E4910E2F10E038EDC32E33E1D32E8091DB
:1057F0001602882361F0109216020E940E199093EF
:1058000014028093130210921802109217020E9441
:105810000E19E0911302F09114028E1B9F0B8F3F23
:105820009F4750F40E0F1F1F109314020093130292
:1058300083E192E0F601099580910402882369F0E2
:105840001092040280911A02811107C080912202F5
:1058500060E0869586950E94E91A10E000E062E01B
:10586000E62E74E0872E912CEDEF7E2E6624639455
:10587000FCEF5F2EA3E04A2E6BC181E59DE0ABCE2D
:1058800080919402843009F436C010921A028091FB
:10589000FF0181110DC00093FF0180912202982F1A
:1058A00091709093FE018E7F809322020E940113DB
:1058B0000E942216109282020FB6F894A8952092A8
:1058C00060000FBE1093600083B7817F846083BF48
:1058D00083B7816083BF7894889583B78E7F83BFB9
:1058E0000FB6F894A895809160008861809360005D
:1058F000109260000FBE80919302882309F42BCF91
:105900000E94561B80910F0290910E02892B90915C
:105910001002892B09F41FCFF9BCE9BC09B400FEC1
:10592000FDCF8091D8008F7D8093D8008091E000DA
:1059300082608093E0008091E00081FDFCCF0E94B6
:10594000671C09CF4EE0A42E42E0B42E51E0C52ED4
:1059500052E0D52E10E0D5010D915D01F601819147
:105960006F018017D1F1982E9026F12CEE24E3944C
:10597000882483948E2D892141F12296FFAE2297AF
:1059800023961FAF23970E940E1925969FAF8EAFC7
:10599000259726968FAE269791E08E2D802309F4C9
:1059A00090E027969FAF279722964FAD2297239698
:1059B0005FAD239724966FAD249725967FAD2597ED
:1059C00026968FAD26970E948121F394EE0CF3E08A
:1059D000FF12D0CFF601319700831F5F133009F01B
:1059E000BACF0E944D0DFF24F394E7CE863059F4D0
:1059F000F0E0E759F24FE4910E2F10E028ECC22EB0
:105A000023E1D22EF4CE893061F4E695F0E0EA5934
:105A1000F24FE4910E2F10E090E7C92E93E1D92EBA
:105A2000E6CE00ED17E0B6E3CB2EBDE0DB2E8F30E7
:105A300009F0DDCE04EF11E088E3C82E83E1D82E13
:105A4000D6CEC12ED12CEFB1E5FBEE27E0F97C9943
:105A50008DC080E08E2BD601A85FBD4FEC919E2FAC
:105A60009370891709F473C0EE0FEE0FE82BEC93D7
:105A7000EF70F0E0EA57FE4F96012A5F3D4F590163
:105A80008081D9019C91890F8C9320E084304CF166
:105A9000F601EB5FFD4F80818F5F80830E940E19BE
:105AA0001DAB5EAA682F8FAB98AF49AE6AAE412F8F
:105AB0005CEF792F83E091E00E9481210E940E1912
:105AC0001BAF5CAE682F8DAF9EAF4FAE21961FAE61
:105AD0002197412F5CEF792F83E090E00E94812194
